{
    "abi": [
        {
            "type": "constructor",
            "inputs": [],
            "stateMutability": "nonpayable"
        },
        {
            "type": "function",
            "name": "addSupportedStablecoin",
            "inputs": [
                {
                    "name": "stablecoin",
                    "type": "address",
                    "internalType": "address"
                }
            ],
            "outputs": [],
            "stateMutability": "nonpayable"
        },
        {
            "type": "function",
            "name": "blacklist",
            "inputs": [
                {
                    "name": "",
                    "type": "address",
                    "internalType": "address"
                }
            ],
            "outputs": [
                {
                    "name": "",
                    "type": "bool",
                    "internalType": "bool"
                }
            ],
            "stateMutability": "view"
        },
        {
            "type": "function",
            "name": "blacklistAddress",
            "inputs": [
                {
                    "name": "addr",
                    "type": "address",
                    "internalType": "address"
                }
            ],
            "outputs": [],
            "stateMutability": "nonpayable"
        },
        {
            "type": "function",
            "name": "deactivateProperty",
            "inputs": [
                {
                    "name": "propertyId",
                    "type": "uint256",
                    "internalType": "uint256"
                }
            ],
            "outputs": [],
            "stateMutability": "nonpayable"
        },
        {
            "type": "function",
            "name": "emergencyPauseAll",
            "inputs": [],
            "outputs": [],
            "stateMutability": "nonpayable"
        },
        {
            "type": "function",
            "name": "getActiveProperties",
            "inputs": [],
            "outputs": [
                {
                    "name": "",
                    "type": "uint256[]",
                    "internalType": "uint256[]"
                }
            ],
            "stateMutability": "view"
        },
        {
            "type": "function",
            "name": "getAllProperties",
            "inputs": [],
            "outputs": [
                {
                    "name": "",
                    "type": "uint256[]",
                    "internalType": "uint256[]"
                }
            ],
            "stateMutability": "view"
        },
        {
            "type": "function",
            "name": "getPlatformStats",
            "inputs": [],
            "outputs": [
                {
                    "name": "totalProperties",
                    "type": "uint256",
                    "internalType": "uint256"
                },
                {
                    "name": "activeProperties",
                    "type": "uint256",
                    "internalType": "uint256"
                }
            ],
            "stateMutability": "view"
        },
        {
            "type": "function",
            "name": "getPropertiesByStablecoin",
            "inputs": [
                {
                    "name": "stablecoin",
                    "type": "address",
                    "internalType": "address"
                }
            ],
            "outputs": [
                {
                    "name": "",
                    "type": "uint256[]",
                    "internalType": "uint256[]"
                }
            ],
            "stateMutability": "view"
        },
        {
            "type": "function",
            "name": "getPropertyBasics",
            "inputs": [
                {
                    "name": "propertyId",
                    "type": "uint256",
                    "internalType": "uint256"
                }
            ],
            "outputs": [
                {
                    "name": "landContract",
                    "type": "address",
                    "internalType": "address"
                },
                {
                    "name": "paymentToken",
                    "type": "address",
                    "internalType": "address"
                },
                {
                    "name": "propertyName",
                    "type": "string",
                    "internalType": "string"
                },
                {
                    "name": "totalValue",
                    "type": "uint256",
                    "internalType": "uint256"
                },
                {
                    "name": "totalSupply",
                    "type": "uint256",
                    "internalType": "uint256"
                },
                {
                    "name": "active",
                    "type": "bool",
                    "internalType": "bool"
                }
            ],
            "stateMutability": "view"
        },
        {
            "type": "function",
            "name": "getPropertyInfo",
            "inputs": [
                {
                    "name": "propertyId",
                    "type": "uint256",
                    "internalType": "uint256"
                }
            ],
            "outputs": [
                {
                    "name": "",
                    "type": "tuple",
                    "internalType": "struct LandTokenizer.PropertyInfo",
                    "components": [
                        {
                            "name": "landContract",
                            "type": "address",
                            "internalType": "address"
                        },
                        {
                            "name": "paymentToken",
                            "type": "address",
                            "internalType": "address"
                        },
                        {
                            "name": "propertyName",
                            "type": "string",
                            "internalType": "string"
                        },
                        {
                            "name": "propertySymbol",
                            "type": "string",
                            "internalType": "string"
                        },
                        {
                            "name": "totalValue",
                            "type": "uint256",
                            "internalType": "uint256"
                        },
                        {
                            "name": "totalSupply",
                            "type": "uint256",
                            "internalType": "uint256"
                        },
                        {
                            "name": "yieldRate",
                            "type": "uint256",
                            "internalType": "uint256"
                        },
                        {
                            "name": "startDate",
                            "type": "uint256",
                            "internalType": "uint256"
                        },
                        {
                            "name": "landType",
                            "type": "uint256",
                            "internalType": "uint256"
                        },
                        {
                            "name": "deployer",
                            "type": "address",
                            "internalType": "address"
                        },
                        {
                            "name": "deployedAt",
                            "type": "uint256",
                            "internalType": "uint256"
                        },
                        {
                            "name": "active",
                            "type": "bool",
                            "internalType": "bool"
                        }
                    ]
                }
            ],
            "stateMutability": "view"
        },
        {
            "type": "function",
            "name": "getSupportedStablecoins",
            "inputs": [],
            "outputs": [
                {
                    "name": "",
                    "type": "address[]",
                    "internalType": "address[]"
                }
            ],
            "stateMutability": "view"
        },
        {
            "type": "function",
            "name": "getTotalProperties",
            "inputs": [],
            "outputs": [
                {
                    "name": "",
                    "type": "uint256",
                    "internalType": "uint256"
                }
            ],
            "stateMutability": "view"
        },
        {
            "type": "function",
            "name": "isBlacklisted",
            "inputs": [
                {
                    "name": "addr",
                    "type": "address",
                    "internalType": "address"
                }
            ],
            "outputs": [
                {
                    "name": "",
                    "type": "bool",
                    "internalType": "bool"
                }
            ],
            "stateMutability": "view"
        },
        {
            "type": "function",
            "name": "isLandZenContract",
            "inputs": [
                {
                    "name": "contractAddr",
                    "type": "address",
                    "internalType": "address"
                }
            ],
            "outputs": [
                {
                    "name": "",
                    "type": "bool",
                    "internalType": "bool"
                }
            ],
            "stateMutability": "view"
        },
        {
            "type": "function",
            "name": "isLandZenProperty",
            "inputs": [
                {
                    "name": "",
                    "type": "address",
                    "internalType": "address"
                }
            ],
            "outputs": [
                {
                    "name": "",
                    "type": "bool",
                    "internalType": "bool"
                }
            ],
            "stateMutability": "view"
        },
        {
            "type": "function",
            "name": "isStablecoinSupported",
            "inputs": [
                {
                    "name": "stablecoin",
                    "type": "address",
                    "internalType": "address"
                }
            ],
            "outputs": [
                {
                    "name": "",
                    "type": "bool",
                    "internalType": "bool"
                }
            ],
            "stateMutability": "view"
        },
        {
            "type": "function",
            "name": "landCount",
            "inputs": [],
            "outputs": [
                {
                    "name": "",
                    "type": "uint256",
                    "internalType": "uint256"
                }
            ],
            "stateMutability": "view"
        },
        {
            "type": "function",
            "name": "owner",
            "inputs": [],
            "outputs": [
                {
                    "name": "",
                    "type": "address",
                    "internalType": "address"
                }
            ],
            "stateMutability": "view"
        },
        {
            "type": "function",
            "name": "paused",
            "inputs": [],
            "outputs": [
                {
                    "name": "",
                    "type": "bool",
                    "internalType": "bool"
                }
            ],
            "stateMutability": "view"
        },
        {
            "type": "function",
            "name": "properties",
            "inputs": [
                {
                    "name": "",
                    "type": "uint256",
                    "internalType": "uint256"
                }
            ],
            "outputs": [
                {
                    "name": "landContract",
                    "type": "address",
                    "internalType": "address"
                },
                {
                    "name": "paymentToken",
                    "type": "address",
                    "internalType": "address"
                },
                {
                    "name": "propertyName",
                    "type": "string",
                    "internalType": "string"
                },
                {
                    "name": "propertySymbol",
                    "type": "string",
                    "internalType": "string"
                },
                {
                    "name": "totalValue",
                    "type": "uint256",
                    "internalType": "uint256"
                },
                {
                    "name": "totalSupply",
                    "type": "uint256",
                    "internalType": "uint256"
                },
                {
                    "name": "yieldRate",
                    "type": "uint256",
                    "internalType": "uint256"
                },
                {
                    "name": "startDate",
                    "type": "uint256",
                    "internalType": "uint256"
                },
                {
                    "name": "landType",
                    "type": "uint256",
                    "internalType": "uint256"
                },
                {
                    "name": "deployer",
                    "type": "address",
                    "internalType": "address"
                },
                {
                    "name": "deployedAt",
                    "type": "uint256",
                    "internalType": "uint256"
                },
                {
                    "name": "active",
                    "type": "bool",
                    "internalType": "bool"
                }
            ],
            "stateMutability": "view"
        },
        {
            "type": "function",
            "name": "reactivateProperty",
            "inputs": [
                {
                    "name": "propertyId",
                    "type": "uint256",
                    "internalType": "uint256"
                }
            ],
            "outputs": [],
            "stateMutability": "nonpayable"
        },
        {
            "type": "function",
            "name": "removeSupportedStablecoin",
            "inputs": [
                {
                    "name": "stablecoin",
                    "type": "address",
                    "internalType": "address"
                }
            ],
            "outputs": [],
            "stateMutability": "nonpayable"
        },
        {
            "type": "function",
            "name": "renounceOwnership",
            "inputs": [],
            "outputs": [],
            "stateMutability": "nonpayable"
        },
        {
            "type": "function",
            "name": "stablecoinList",
            "inputs": [
                {
                    "name": "",
                    "type": "uint256",
                    "internalType": "uint256"
                }
            ],
            "outputs": [
                {
                    "name": "",
                    "type": "address",
                    "internalType": "address"
                }
            ],
            "stateMutability": "view"
        },
        {
            "type": "function",
            "name": "supportedStablecoins",
            "inputs": [
                {
                    "name": "",
                    "type": "address",
                    "internalType": "address"
                }
            ],
            "outputs": [
                {
                    "name": "",
                    "type": "bool",
                    "internalType": "bool"
                }
            ],
            "stateMutability": "view"
        },
        {
            "type": "function",
            "name": "tokenizeProperty",
            "inputs": [
                {
                    "name": "_paymentToken",
                    "type": "address",
                    "internalType": "address"
                },
                {
                    "name": "_propertyName",
                    "type": "string",
                    "internalType": "string"
                },
                {
                    "name": "_propertySymbol",
                    "type": "string",
                    "internalType": "string"
                },
                {
                    "name": "_totalValue",
                    "type": "uint256",
                    "internalType": "uint256"
                },
                {
                    "name": "_totalSupply",
                    "type": "uint256",
                    "internalType": "uint256"
                },
                {
                    "name": "_yieldRate",
                    "type": "uint256",
                    "internalType": "uint256"
                },
                {
                    "name": "_startDate",
                    "type": "uint256",
                    "internalType": "uint256"
                },
                {
                    "name": "_landType",
                    "type": "uint256",
                    "internalType": "uint256"
                }
            ],
            "outputs": [
                {
                    "name": "",
                    "type": "address",
                    "internalType": "address"
                }
            ],
            "stateMutability": "nonpayable"
        },
        {
            "type": "function",
            "name": "transferOwnership",
            "inputs": [
                {
                    "name": "newOwner",
                    "type": "address",
                    "internalType": "address"
                }
            ],
            "outputs": [],
            "stateMutability": "nonpayable"
        },
        {
            "type": "function",
            "name": "unblacklistAddress",
            "inputs": [
                {
                    "name": "addr",
                    "type": "address",
                    "internalType": "address"
                }
            ],
            "outputs": [],
            "stateMutability": "nonpayable"
        },
        {
            "type": "function",
            "name": "unpauseAll",
            "inputs": [],
            "outputs": [],
            "stateMutability": "nonpayable"
        },
        {
            "type": "event",
            "name": "BlacklistUpdated",
            "inputs": [
                {
                    "name": "addr",
                    "type": "address",
                    "indexed": true,
                    "internalType": "address"
                },
                {
                    "name": "isBlacklisted",
                    "type": "bool",
                    "indexed": false,
                    "internalType": "bool"
                }
            ],
            "anonymous": false
        },
        {
            "type": "event",
            "name": "EmergencyPauseAll",
            "inputs": [],
            "anonymous": false
        },
        {
            "type": "event",
            "name": "EmergencyUnpauseAll",
            "inputs": [],
            "anonymous": false
        },
        {
            "type": "event",
            "name": "OwnershipTransferred",
            "inputs": [
                {
                    "name": "previousOwner",
                    "type": "address",
                    "indexed": true,
                    "internalType": "address"
                },
                {
                    "name": "newOwner",
                    "type": "address",
                    "indexed": true,
                    "internalType": "address"
                }
            ],
            "anonymous": false
        },
        {
            "type": "event",
            "name": "Paused",
            "inputs": [
                {
                    "name": "account",
                    "type": "address",
                    "indexed": false,
                    "internalType": "address"
                }
            ],
            "anonymous": false
        },
        {
            "type": "event",
            "name": "PropertyStatusUpdated",
            "inputs": [
                {
                    "name": "propertyId",
                    "type": "uint256",
                    "indexed": true,
                    "internalType": "uint256"
                },
                {
                    "name": "active",
                    "type": "bool",
                    "indexed": false,
                    "internalType": "bool"
                }
            ],
            "anonymous": false
        },
        {
            "type": "event",
            "name": "PropertyTokenized",
            "inputs": [
                {
                    "name": "propertyId",
                    "type": "uint256",
                    "indexed": true,
                    "internalType": "uint256"
                },
                {
                    "name": "landContract",
                    "type": "address",
                    "indexed": true,
                    "internalType": "address"
                },
                {
                    "name": "paymentToken",
                    "type": "address",
                    "indexed": true,
                    "internalType": "address"
                },
                {
                    "name": "propertyName",
                    "type": "string",
                    "indexed": false,
                    "internalType": "string"
                },
                {
                    "name": "totalValue",
                    "type": "uint256",
                    "indexed": false,
                    "internalType": "uint256"
                },
                {
                    "name": "totalSupply",
                    "type": "uint256",
                    "indexed": false,
                    "internalType": "uint256"
                }
            ],
            "anonymous": false
        },
        {
            "type": "event",
            "name": "StablecoinUpdated",
            "inputs": [
                {
                    "name": "stablecoin",
                    "type": "address",
                    "indexed": true,
                    "internalType": "address"
                },
                {
                    "name": "supported",
                    "type": "bool",
                    "indexed": false,
                    "internalType": "bool"
                }
            ],
            "anonymous": false
        },
        {
            "type": "event",
            "name": "Unpaused",
            "inputs": [
                {
                    "name": "account",
                    "type": "address",
                    "indexed": false,
                    "internalType": "address"
                }
            ],
            "anonymous": false
        },
        {
            "type": "error",
            "name": "EnforcedPause",
            "inputs": []
        },
        {
            "type": "error",
            "name": "ExpectedPause",
            "inputs": []
        },
        {
            "type": "error",
            "name": "InvalidPropertyName",
            "inputs": []
        },
        {
            "type": "error",
            "name": "InvalidPropertySymbol",
            "inputs": []
        },
        {
            "type": "error",
            "name": "InvalidPropertyValue",
            "inputs": []
        },
        {
            "type": "error",
            "name": "InvalidStartDate",
            "inputs": []
        },
        {
            "type": "error",
            "name": "InvalidSupply",
            "inputs": []
        },
        {
            "type": "error",
            "name": "OwnableInvalidOwner",
            "inputs": [
                {
                    "name": "owner",
                    "type": "address",
                    "internalType": "address"
                }
            ]
        },
        {
            "type": "error",
            "name": "OwnableUnauthorizedAccount",
            "inputs": [
                {
                    "name": "account",
                    "type": "address",
                    "internalType": "address"
                }
            ]
        },
        {
            "type": "error",
            "name": "ReentrancyGuardReentrantCall",
            "inputs": []
        }
    ],
    "bytecode": {
        "object": "0x60806040525f600355348015610013575f5ffd5b50338061003957604051631e4fbdf760e01b81525f600482015260240160405180910390fd5b610042816100ce565b50600180805560076020527fec88ec8bcdddb8091b7022ee78c170fb4c2e9daa0480e3f3d15195e40f5008cb805460ff1916821790556008805491820181555f527ff3f7a9fe364faab93b216da50a3214154f22a0a2b415b23a84c8169e8b636ee30180546001600160a01b03191673e92c929a47eed2589ae0eab2313e17affef22a5517905561011d565b5f80546001600160a01b038381166001600160a01b0319831681178455604051919092169283917f8be0079c531659141344cd1fd0a4f28419497f9722a3daafe3b4186f6b6457e09190a35050565b6154df8061012a5f395ff3fe608060405234801561000f575f5ffd5b50600436106101d1575f3560e01c80637ca28bc6116100fe578063d5d3f78b1161009e578063f3290d751161006e578063f3290d751461042b578063f7b108081461043e578063f9f92be414610469578063fe575a871461048b575f5ffd5b8063d5d3f78b146103f4578063d7bce65814610407578063eb81e09814610410578063f2fde38b14610418575f5ffd5b80638d486414116100d95780638d486414146103845780638da5cb5b146103af578063b416eaa5146103bf578063bf7d9119146103d2575f5ffd5b80637ca28bc6146103475780638a2ddd031461035a5780638a74f2b814610362575f5ffd5b80634450b472116101745780635c975abb116101445780635c975abb146102fa578063634c151614610305578063715018a61461032a5780637c6f73eb14610332575f5ffd5b80634450b4721461028657806345e349491461029957806352591aa9146102ac57806358cc58fe146102e7575f5ffd5b806324532867116101af578063245328671461021357806332af1e5f146102265780633d51402c1461025157806340f0a05514610266575f5ffd5b80630775ef0f146101d5578063136d8883146101df57806317aaf5ed14610201575b5f5ffd5b6101dd6104b6565b005b6101e76104f0565b604080519283526020830191909152015b60405180910390f35b6003545b6040519081526020016101f8565b6101dd610221366004611a79565b61053e565b610239610234366004611b38565b610679565b6040516001600160a01b0390911681526020016101f8565b6102596107b8565b6040516101f89190611bd8565b610279610274366004611c1a565b61084e565b6040516101f89190611c5f565b610239610294366004611c1a565b610ae7565b6101dd6102a7366004611a79565b610b0f565b6102d76102ba366004611a79565b6001600160a01b03165f9081526005602052604090205460ff1690565b60405190151581526020016101f8565b6102596102f5366004611a79565b610b8c565b60025460ff166102d7565b610318610313366004611c1a565b610cd7565b6040516101f896959493929190611d4b565b6101dd610f38565b61033a610f4b565b6040516101f89190611d96565b6101dd610355366004611c1a565b610fab565b6101dd61105a565b6102d7610370366004611a79565b60056020525f908152604090205460ff1681565b6102d7610392366004611a79565b6001600160a01b03165f9081526007602052604090205460ff1690565b5f546001600160a01b0316610239565b6101dd6103cd366004611c1a565b611094565b6102d76103e0366004611a79565b60076020525f908152604090205460ff1681565b6101dd610402366004611a79565b611120565b61020560035481565b610259611301565b6101dd610426366004611a79565b6113fd565b6101dd610439366004611a79565b61143a565b61045161044c366004611c1a565b6114bf565b6040516101f89c9b9a99989796959493929190611dd6565b6102d7610477366004611a79565b60066020525f908152604090205460ff1681565b6102d7610499366004611a79565b6001600160a01b03165f9081526006602052604090205460ff1690565b6104be611641565b6104c661166d565b6040517f7acea6fdec096f58b311a939f5326f53299f6ef3d46a759213f8ce2f0e557755905f90a1565b6003545f60015b6003548111610539575f818152600460205260409020600b015460ff1615610527578161052381611e80565b9250505b8061053181611e80565b9150506104f7565b509091565b610546611641565b806001600160a01b0381166105765760405162461bcd60e51b815260040161056d90611e98565b60405180910390fd5b6001600160a01b0382165f9081526007602052604090205460ff16156105de5760405162461bcd60e51b815260206004820152601c60248201527f537461626c65636f696e20616c726561647920737570706f7274656400000000604482015260640161056d565b6001600160a01b0382165f818152600760209081526040808320805460ff1916600190811790915560088054808301825594527ff3f7a9fe364faab93b216da50a3214154f22a0a2b415b23a84c8169e8b636ee390930180546001600160a01b03191685179055519182527f855c900f27c6636569173ceb716d3cfc1a9f951524e822fc3b3f597010a057a391015b60405180910390a25050565b5f610682611641565b6001600160a01b0389165f90815260076020526040902054899060ff166106e65760405162461bcd60e51b815260206004820152601860248201527714dd18589b1958dbda5b881b9bdd081cdd5c1c1bdc9d195960421b604482015260640161056d565b6106ee6116c7565b5f6040518061010001604052808c6001600160a01b031681526020018b81526020018a815260200189815260200188815260200187815260200186815260200185815250905061073d816116eb565b5f815f0151826060015183608001518460a001518560c001518660e001518760200151886040015160405161077190611a51565b610782989796959493929190611ec1565b604051809103905ff08015801561079b573d5f5f3e3d5ffd5b5090506107a881836117a2565b9c9b505050505050505050505050565b60605f60035467ffffffffffffffff8111156107d6576107d6611a99565b6040519080825280602002602001820160405280156107ff578160200160208202803683370190505b50905060015b600354811161084857808261081b600183611f22565b8151811061082b5761082b611f35565b60209081029190910101528061084081611e80565b915050610805565b50919050565b6108c56040518061018001604052805f6001600160a01b031681526020015f6001600160a01b0316815260200160608152602001606081526020015f81526020015f81526020015f81526020015f81526020015f81526020015f6001600160a01b031681526020015f81526020015f151581525090565b815f811180156108d757506003548111155b6108f35760405162461bcd60e51b815260040161056d90611f49565b5f818152600460205260409020600b015460ff166109235760405162461bcd60e51b815260040161056d90611f76565b5f8381526004602090815260409182902082516101808101845281546001600160a01b03908116825260018301541692810192909252600281018054929391929184019161097090611fa3565b80601f016020809104026020016040519081016040528092919081815260200182805461099c90611fa3565b80156109e75780601f106109be576101008083540402835291602001916109e7565b820191905f5260205f20905b8154815290600101906020018083116109ca57829003601f168201915b50505050508152602001600382018054610a0090611fa3565b80601f0160208091040260200160405190810160405280929190818152602001828054610a2c90611fa3565b8015610a775780601f10610a4e57610100808354040283529160200191610a77565b820191905f5260205f20905b815481529060010190602001808311610a5a57829003601f168201915b505050918352505060048201546020820152600582015460408201526006820154606082015260078201546080820152600882015460a082015260098201546001600160a01b031660c0820152600a82015460e0820152600b9091015460ff161515610100909101529392505050565b60088181548110610af6575f80fd5b5f918252602090912001546001600160a01b0316905081565b610b17611641565b806001600160a01b038116610b3e5760405162461bcd60e51b815260040161056d90611e98565b6001600160a01b0382165f818152600660209081526040808320805460ff19169055519182527f6a12b3df6cba4203bd7fd06b816789f87de8c594299aed5717ae070fac781bac910161066d565b60605f60015b6003548111610bfb575f818152600460205260409020600101546001600160a01b038581169116148015610bd657505f818152600460205260409020600b015460ff165b15610be95781610be581611e80565b9250505b80610bf381611e80565b915050610b92565b505f8167ffffffffffffffff811115610c1657610c16611a99565b604051908082528060200260200182016040528015610c3f578160200160208202803683370190505b5090505f60015b6003548111610ccd575f818152600460205260409020600101546001600160a01b038781169116148015610c8a57505f818152600460205260409020600b015460ff165b15610cbb5780838381518110610ca257610ca2611f35565b602090810291909101015281610cb781611e80565b9250505b80610cc581611e80565b915050610c46565b5090949350505050565b5f5f60605f5f5f865f81118015610cf057506003548111155b610d0c5760405162461bcd60e51b815260040161056d90611f49565b5f818152600460205260409020600b015460ff16610d3c5760405162461bcd60e51b815260040161056d90611f76565b5f88815260046020908152604080832081516101808101835281546001600160a01b039081168252600183015416938101939093526002810180549192840191610d8590611fa3565b80601f0160208091040260200160405190810160405280929190818152602001828054610db190611fa3565b8015610dfc5780601f10610dd357610100808354040283529160200191610dfc565b820191905f5260205f20905b815481529060010190602001808311610ddf57829003601f168201915b50505050508152602001600382018054610e1590611fa3565b80601f0160208091040260200160405190810160405280929190818152602001828054610e4190611fa3565b8015610e8c5780601f10610e6357610100808354040283529160200191610e8c565b820191905f5260205f20905b815481529060010190602001808311610e6f57829003601f168201915b505050918352505060048201546020808301919091526005830154604080840191909152600684015460608401526007840154608080850191909152600885015460a08086019190915260098601546001600160a01b031660c0860152600a86015460e0860152600b9095015460ff1615156101009094019390935284519185015190850151928501519385015161016090950151919e909d50919b5091995091975095509350505050565b610f40611641565b610f495f6119a6565b565b60606008805480602002602001604051908101604052809291908181526020018280548015610fa157602002820191905f5260205f20905b81546001600160a01b03168152600190910190602001808311610f83575b5050505050905090565b610fb3611641565b805f81118015610fc557506003548111155b610fe15760405162461bcd60e51b815260040161056d90611f49565b5f818152600460205260409020600b015460ff166110115760405162461bcd60e51b815260040161056d90611f76565b5f828152600460209081526040808320600b01805460ff191690555191825283917fa3d44d1d4e082efa8adf548ff411647ffe25d72842a3f0e6a73a209306153ed5910161066d565b611062611641565b61106a6119f5565b6040517f15c1454c265c3ae49e291fd6ea949cf42ab516a88ebb9f6b015c38d69f9c2729905f90a1565b61109c611641565b5f811180156110ad57506003548111155b6110c95760405162461bcd60e51b815260040161056d90611f49565b5f81815260046020908152604091829020600b01805460ff19166001908117909155915191825282917fa3d44d1d4e082efa8adf548ff411647ffe25d72842a3f0e6a73a209306153ed5910160405180910390a250565b611128611641565b806001600160a01b03811661114f5760405162461bcd60e51b815260040161056d90611e98565b6001600160a01b0382165f9081526007602052604090205460ff166111b15760405162461bcd60e51b815260206004820152601860248201527714dd18589b1958dbda5b881b9bdd081cdd5c1c1bdc9d195960421b604482015260640161056d565b6001600160a01b0382165f908152600760205260408120805460ff191690555b6008548110156112c557826001600160a01b0316600882815481106111f8576111f8611f35565b5f918252602090912001546001600160a01b0316036112bd576008805461122190600190611f22565b8154811061123157611231611f35565b5f91825260209091200154600880546001600160a01b03909216918390811061125c5761125c611f35565b905f5260205f20015f6101000a8154816001600160a01b0302191690836001600160a01b03160217905550600880548061129857611298611fd5565b5f8281526020902081015f1990810180546001600160a01b03191690550190556112c5565b6001016111d1565b506040515f81526001600160a01b038316907f855c900f27c6636569173ceb716d3cfc1a9f951524e822fc3b3f597010a057a39060200161066d565b60605f60015b6003548111611349575f818152600460205260409020600b015460ff1615611337578161133381611e80565b9250505b8061134181611e80565b915050611307565b505f8167ffffffffffffffff81111561136457611364611a99565b60405190808252806020026020018201604052801561138d578160200160208202803683370190505b5090505f60015b60035481116113f4575f818152600460205260409020600b015460ff16156113e257808383815181106113c9576113c9611f35565b6020908102919091010152816113de81611e80565b9250505b806113ec81611e80565b915050611394565b50909392505050565b611405611641565b6001600160a01b03811661142e57604051631e4fbdf760e01b81525f600482015260240161056d565b611437816119a6565b50565b611442611641565b806001600160a01b0381166114695760405162461bcd60e51b815260040161056d90611e98565b6001600160a01b0382165f81815260066020908152604091829020805460ff1916600190811790915591519182527f6a12b3df6cba4203bd7fd06b816789f87de8c594299aed5717ae070fac781bac910161066d565b60046020525f90815260409020805460018201546002830180546001600160a01b039384169492909316926114f390611fa3565b80601f016020809104026020016040519081016040528092919081815260200182805461151f90611fa3565b801561156a5780601f106115415761010080835404028352916020019161156a565b820191905f5260205f20905b81548152906001019060200180831161154d57829003601f168201915b50505050509080600301805461157f90611fa3565b80601f01602080910402602001604051908101604052809291908181526020018280546115ab90611fa3565b80156115f65780601f106115cd576101008083540402835291602001916115f6565b820191905f5260205f20905b8154815290600101906020018083116115d957829003601f168201915b50505050600483015460058401546006850154600786015460088701546009880154600a890154600b90990154979895979496509294919390926001600160a01b0316919060ff168c565b5f546001600160a01b03163314610f495760405163118cdaa760e01b815233600482015260240161056d565b6116756116c7565b6002805460ff191660011790557f62e78cea01bee320cd4e420270b5ea74000d11b0c9f74754ebdbfc544b05a2586116aa3390565b6040516001600160a01b03909116815260200160405180910390a1565b60025460ff1615610f495760405163d93c066560e01b815260040160405180910390fd5b80606001515f0361170f57604051635c159c1360e01b815260040160405180910390fd5b80608001515f03611733576040516315ae672760e01b815260040160405180910390fd5b428160c00151101561175857604051630bf784c760e01b815260040160405180910390fd5b8060200151515f0361177d57604051634f0f5e4960e11b815260040160405180910390fd5b8060400151515f036114375760405163192039a560e01b815260040160405180910390fd5b600380545f91849190836117b583611e80565b909155505060408051610180810182526001600160a01b038084168252855181166020808401918252878101518486019081528886015160608087019190915289015160808087019190915289015160a08087019190915289015160c08087019190915289015160e0808701919091528901516101008601523361012086015243610140860152600161016086018190526003545f908152600490935295909120845181549085166001600160a01b031991821617825592519581018054969094169590921694909417909155915190919060028201906118969082612035565b50606082015160038201906118ab9082612035565b50608082810151600483015560a083015160058084019190915560c0840151600684015560e0840151600784015561010084015160088401556101208401516009840180546001600160a01b039283166001600160a01b0319909116179055610140850151600a85015561016090940151600b909301805493151560ff199485161790558484165f8181526020928352604090819020805490951660011790945587516003549289015160608a0151948a015195519190961695919492937f2de2879b474ebcb43a870537c5f668fe1aaa38c7110c66cf4d3f5cd098ba77299361199593926120f0565b60405180910390a490505b92915050565b5f80546001600160a01b038381166001600160a01b0319831681178455604051919092169283917f8be0079c531659141344cd1fd0a4f28419497f9722a3daafe3b4186f6b6457e09190a35050565b6119fd611a2e565b6002805460ff191690557f5db9ee0a495bf2e6ff9c91a7834c1ba4fdd244a5e8aa4e537bd38aeae4b073aa336116aa565b60025460ff16610f4957604051638dfc202b60e01b815260040160405180910390fd5b6133958061211583390190565b80356001600160a01b0381168114611a74575f5ffd5b919050565b5f60208284031215611a89575f5ffd5b611a9282611a5e565b9392505050565b634e487b7160e01b5f52604160045260245ffd5b5f82601f830112611abc575f5ffd5b813567ffffffffffffffff811115611ad657611ad6611a99565b604051601f8201601f19908116603f0116810167ffffffffffffffff81118282101715611b0557611b05611a99565b604052818152838201602001851015611b1c575f5ffd5b816020850160208301375f918101602001919091529392505050565b5f5f5f5f5f5f5f5f610100898b031215611b50575f5ffd5b611b5989611a5e565b9750602089013567ffffffffffffffff811115611b74575f5ffd5b611b808b828c01611aad565b975050604089013567ffffffffffffffff811115611b9c575f5ffd5b611ba88b828c01611aad565b989b979a5097986060810135985060808101359760a0820135975060c0820135965060e090910135945092505050565b602080825282518282018190525f918401906040840190835b81811015611c0f578351835260209384019390920191600101611bf1565b509095945050505050565b5f60208284031215611c2a575f5ffd5b5035919050565b5f81518084528060208401602086015e5f602082860101526020601f19601f83011685010191505092915050565b60208152611c796020820183516001600160a01b03169052565b5f6020830151611c9460408401826001600160a01b03169052565b5060408301516101806060840152611cb06101a0840182611c31565b90506060840151601f19848303016080850152611ccd8282611c31565b915050608084015160a084015260a084015160c084015260c084015160e084015260e0840151610100840152610100840151610120840152610120840151611d216101408501826001600160a01b03169052565b50610140840151610160840152610160840151611d4361018085018215159052565b509392505050565b6001600160a01b0387811682528616602082015260c0604082018190525f90611d7690830187611c31565b6060830195909552506080810192909252151560a0909101529392505050565b602080825282518282018190525f918401906040840190835b81811015611c0f5783516001600160a01b0316835260209384019390920191600101611daf565b6001600160a01b038d811682528c166020820152610180604082018190525f90611e029083018d611c31565b8281036060840152611e14818d611c31565b9150508960808301528860a08301528760c08301528660e08301528561010083015260018060a01b03851661012083015283610140830152611e5b61016083018415159052565b9d9c50505050505050505050505050565b634e487b7160e01b5f52601160045260245ffd5b5f60018201611e9157611e91611e6c565b5060010190565b6020808252600f908201526e496e76616c6964206164647265737360881b604082015260600190565b60018060a01b03891681528760208201528660408201528560608201528460808201528360a082015261010060c08201525f611f01610100830185611c31565b82810360e0840152611f138185611c31565b9b9a5050505050505050505050565b818103818111156119a0576119a0611e6c565b634e487b7160e01b5f52603260045260245ffd5b602080825260139082015272125b9d985b1a59081c1c9bdc195c9d1e481251606a1b604082015260600190565b60208082526013908201527250726f7065727479206e6f742061637469766560681b604082015260600190565b600181811c90821680611fb757607f821691505b60208210810361084857634e487b7160e01b5f52602260045260245ffd5b634e487b7160e01b5f52603160045260245ffd5b601f82111561203057805f5260205f20601f840160051c8101602085101561200e5750805b601f840160051c820191505b8181101561202d575f815560010161201a565b50505b505050565b815167ffffffffffffffff81111561204f5761204f611a99565b6120638161205d8454611fa3565b84611fe9565b6020601f821160018114612095575f831561207e5750848201515b5f19600385901b1c1916600184901b17845561202d565b5f84815260208120601f198516915b828110156120c457878501518255602094850194600190920191016120a4565b50848210156120e157868401515f19600387901b60f8161c191681555b50505050600190811b01905550565b606081525f6121026060830186611c31565b6020830194909452506040015291905056fe6101206040526001600d55600f805461ffff19169055348015610020575f5ffd5b5060405161339538038061339583398101604081905261003f91610209565b3382825f61004d8382610340565b50600161005a8282610340565b5050506001600160a01b03811661008b57604051631e4fbdf760e01b81525f60048201526024015b60405180910390fd5b6100948161011b565b506001600b556001600160a01b0388166100f05760405162461bcd60e51b815260206004820152601a60248201527f496e76616c696420737461626c65636f696e20616464726573730000000000006044820152606401610082565b50506001600160a01b0390951660805260a09390935260c091909152600e5560e052610100526103fa565b600a80546001600160a01b038381166001600160a01b0319831681179093556040519116919082907f8be0079c531659141344cd1fd0a4f28419497f9722a3daafe3b4186f6b6457e0905f90a35050565b634e487b7160e01b5f52604160045260245ffd5b5f82601f83011261018f575f5ffd5b81516001600160401b038111156101a8576101a861016c565b604051601f8201601f19908116603f011681016001600160401b03811182821017156101d6576101d661016c565b6040528181528382016020018510156101ed575f5ffd5b8160208501602083015e5f918101602001919091529392505050565b5f5f5f5f5f5f5f5f610100898b031215610221575f5ffd5b88516001600160a01b0381168114610237575f5ffd5b60208a015160408b015160608c015160808d015160a08e015160c08f0151959d50939b509199509750955093506001600160401b03811115610277575f5ffd5b6102838b828c01610180565b60e08b015190935090506001600160401b038111156102a0575f5ffd5b6102ac8b828c01610180565b9150509295985092959890939650565b600181811c908216806102d057607f821691505b6020821081036102ee57634e487b7160e01b5f52602260045260245ffd5b50919050565b601f82111561033b57805f5260205f20601f840160051c810160208510156103195750805b601f840160051c820191505b81811015610338575f8155600101610325565b50505b505050565b81516001600160401b038111156103595761035961016c565b61036d8161036784546102bc565b846102f4565b6020601f82116001811461039f575f83156103885750848201515b5f19600385901b1c1916600184901b178455610338565b5f84815260208120601f198516915b828110156103ce57878501518255602094850194600190920191016103ae565b50848210156103eb57868401515f19600387901b60f8161c191681555b50505050600190811b01905550565b60805160a05160c05160e05161010051612eaf6104e65f395f61064001525f81816105cf01528181610af10152818161120701528181611a0e01528181611a420152611e4e01525f818161061101528181610ac201528181610b2401528181610ba301528181610e050152818161119501528181611282015261176701525f81816106b801528181610b45015281816112a3015261178801525f818161066f0152818161090a01528181610bef01528181610e56015281816112f60152818161147a01528181611535015281816117db015281816118e401528181611ba80152611d490152612eaf5ff3fe608060405234801561000f575f5ffd5b5060043610610367575f3560e01c8063624d7b72116101c957806398bdf6f5116100fe578063d7a7501a1161009e578063e7aa3afc11610079578063e7aa3afc14610757578063e985e9c514610787578063f2fde38b1461079a578063f3a504f2146107ad575f5ffd5b8063d7a7501a14610725578063ddd1b67e14610747578063e507a8a41461074f575f5ffd5b8063b88d4fde116100d9578063b88d4fde146106ed578063be040fb014610700578063c87b56dd14610708578063cb8c15171461071b575f5ffd5b806398bdf6f5146106aa578063a08f771a146106b3578063a22cb465146106da575f5ffd5b806378d8049a116101695780638adb0ec5116101445780638adb0ec5146106625780638d442f8a1461066a5780638da5cb5b1461069157806395d89b41146106a2575f5ffd5b806378d8049a1461060c5780638456cb591461063357806388791c0a1461063b575f5ffd5b80636a627842116101a45780636a627842146105b75780636f495605146105ca57806370a08231146105f1578063715018a614610604575f5ffd5b8063624d7b721461057c5780636352211e1461059b5780636999ac93146105ae575f5ffd5b806326d301881161029f57806342842e0e1161023f578063519dc8d21161021a578063519dc8d2146105565780635c975abb146105695780635db074d41461049a5780635f0f34af14610574575f5ffd5b806342842e0e1461052857806342b39b2f1461053b5780634f6ccce714610543575f5ffd5b80632f745c591161027a5780632f745c59146104e35780632f7c7beb146104f65780633f4ba83a146104fe578063412a294314610506575f5ffd5b806326d30188146104c55780632b503ce8146104cd5780632d7ecd11146104d6575f5ffd5b8063114455181161030a578063170fc4a9116102e5578063170fc4a91461049a578063171e1ec8146104a257806318160ddd146104aa57806323b872dd146104b2575f5ffd5b8063114455181461043d5780631411dab0146104725780631641499414610485575f5ffd5b8063081812fc11610345578063081812fc146103b2578063095ea7b3146103dd578063097cd9bf146103f05780630c3d5f6514610427575f5ffd5b806301ffc9a71461036b57806305fa7bcb1461039357806306fdde031461039d575b5f5ffd5b61037e610379366004612a2f565b6107bf565b60405190151581526020015b60405180910390f35b61039b6107cf565b005b6103a56109d9565b60405161038a9190612a78565b6103c56103c0366004612a8a565b610a68565b6040516001600160a01b03909116815260200161038a565b61039b6103eb366004612abc565b610a8f565b6103f8610a9e565b6040805196875260208701959095529385019290925260608401521515608083015260a082015260c00161038a565b61042f610b73565b60405190815260200161038a565b610445610b8a565b604080519687526020870195909552938501929092526060840152608083015260a082015260c00161038a565b61039b610480366004612a8a565b610c60565b61048d610d06565b60405161038a9190612ae4565b61042f610e02565b61042f610e3f565b60085461042f565b61039b6104c0366004612b26565b610ec7565b61037e610f50565b61042f60125481565b600f5461037e9060ff1681565b61042f6104f1366004612abc565b610f81565b61039b610fe4565b61039b611025565b61037e610514366004612a8a565b60116020525f908152604090205460ff1681565b61039b610536366004612b26565b611037565b61042f611056565b61042f610551366004612a8a565b611060565b61048d610564366004612b60565b6110b5565b600c5460ff1661037e565b61039b61114a565b61042f61058a366004612b60565b60106020525f908152604090205481565b6103c56105a9366004612a8a565b611189565b61042f600e5481565b61039b6105c5366004612b60565b611193565b61042f7f000000000000000000000000000000000000000000000000000000000000000081565b61042f6105ff366004612b60565b6113f5565b61039b61143a565b61042f7f000000000000000000000000000000000000000000000000000000000000000081565b61039b61144b565b61042f7f000000000000000000000000000000000000000000000000000000000000000081565b61039b61145b565b6103c57f000000000000000000000000000000000000000000000000000000000000000081565b600a546001600160a01b03166103c5565b6103a5611619565b61042f600d5481565b61042f7f000000000000000000000000000000000000000000000000000000000000000081565b61039b6106e8366004612b86565b611628565b61039b6106fb366004612bcf565b611633565b61039b61164b565b6103a5610716366004612a8a565b61199a565b61042f62034bc081565b61037e610733366004612a8a565b5f9081526011602052604090205460ff1690565b61042f611a0b565b61039b611a7c565b61075f611e17565b604080519485529215156020850152901515918301919091521515606082015260800161038a565b61037e610795366004612cac565b611e7b565b61039b6107a8366004612b60565b611ea8565b600f5461037e90610100900460ff1681565b5f6107c982611ee2565b92915050565b6107d7611f06565b5f6107e0611a0b565b90505f81116108305760405162461bcd60e51b8152602060048201526017602482015276141c9bda9958dd081b9bdd081cdd185c9d1959081e595d604a1b60448201526064015b60405180910390fd5b5f8181526011602052604090205460ff161561088e5760405162461bcd60e51b815260206004820152601960248201527f54686973206d6f6e746820616c72656164792066756e646564000000000000006044820152606401610827565b5f610897610e02565b90505f81116108e85760405162461bcd60e51b815260206004820152601c60248201527f4e6f207969656c642072657175697265642074686973206d6f6e7468000000006044820152606401610827565b6040516323b872dd60e01b8152336004820152306024820152604481018290527f00000000000000000000000000000000000000000000000000000000000000006001600160a01b0316906323b872dd906064016020604051808303815f875af1158015610958573d5f5f3e3d5ffd5b505050506040513d601f19601f8201168201806040525081019061097c9190612cdd565b505f8281526011602052604090819020805460ff19166001179055436012555182907f4e2010a5a9fbe978bef855590894b5883f9e9f9fd190a0905686a7310b129920906109cd9084815260200190565b60405180910390a25050565b60605f80546109e790612cf8565b80601f0160208091040260200160405190810160405280929190818152602001828054610a1390612cf8565b8015610a5e5780601f10610a3557610100808354040283529160200191610a5e565b820191905f5260205f20905b815481529060010190602001808311610a4157829003601f168201915b5050505050905090565b5f610a7282611f33565b505f828152600460205260409020546001600160a01b03166107c9565b610a9a828233611f6b565b5050565b5f5f5f5f5f5f610aad60085490565b95506001600d54610abe9190612d44565b94507f00000000000000000000000000000000000000000000000000000000000000009350610aed8585612d44565b92507f000000000000000000000000000000000000000000000000000000000000000043108015610b1d57508385105b9150610b697f00000000000000000000000000000000000000000000000000000000000000007f0000000000000000000000000000000000000000000000000000000000000000612d57565b9050909192939495565b5f62034bc0600e54610b859190612d76565b905090565b600e545f80808080610b9f62034bc087612d76565b94507f00000000000000000000000000000000000000000000000000000000000000009350610bcd60085490565b9250610bd7610e02565b6040516370a0823160e01b81523060048201529092507f00000000000000000000000000000000000000000000000000000000000000006001600160a01b0316906370a0823190602401602060405180830381865afa158015610c3c573d5f5f3e3d5ffd5b505050506040513d601f19601f82011682018060405250810190610b699190612d8d565b610c68611f06565b5f8111610cc15760405162461bcd60e51b815260206004820152602160248201527f5969656c642072617465206d7573742062652067726561746572207468616e206044820152600360fc1b6064820152608401610827565b600e80549082905560408051828152602081018490527f4959ad9023bf5b492922b51fbc7c0b5e5ec66aa39700e0da6d8af9b2d430898e910160405180910390a15050565b60605f610d11611a0b565b90505f60015b828111610d53575f8181526011602052604090205460ff16610d415781610d3d81612da4565b9250505b80610d4b81612da4565b915050610d17565b505f8167ffffffffffffffff811115610d6e57610d6e612bbb565b604051908082528060200260200182016040528015610d97578160200160208202803683370190505b5090505f60015b848111610df8575f8181526011602052604090205460ff16610de65780838381518110610dcd57610dcd612dbc565b602090810291909101015281610de281612da4565b9250505b80610df081612da4565b915050610d9e565b5090949350505050565b5f7f000000000000000000000000000000000000000000000000000000000000000062034bc0600e54610e359190612d76565b610b859190612d76565b6040516370a0823160e01b81523060048201525f907f00000000000000000000000000000000000000000000000000000000000000006001600160a01b0316906370a0823190602401602060405180830381865afa158015610ea3573d5f5f3e3d5ffd5b505050506040513d601f19601f82011682018060405250810190610b859190612d8d565b6001600160a01b038216610ef057604051633250574960e11b81525f6004820152602401610827565b5f610efc838333611f78565b9050836001600160a01b0316816001600160a01b031614610f4a576040516364283d7b60e01b81526001600160a01b0380861660048301526024820184905282166044820152606401610827565b50505050565b5f5f610f5a611a0b565b9050805f03610f6b57600191505090565b5f9081526011602052604090205460ff16919050565b5f610f8b836113f5565b8210610fbc5760405163295f44f760e21b81526001600160a01b038416600482015260248101839052604401610827565b506001600160a01b03919091165f908152600660209081526040808320938352929052205490565b610fec611f06565b600f805461ff0019166101001790556040517fe9b15236f439dcead4cb64704686640111302b4a62a5cbbdb0bd7ebaf687d1ea905f90a1565b61102d611f06565b611035611f8c565b565b61105183838360405180602001604052805f815250611633565b505050565b5f610b8560085490565b5f61106a60085490565b82106110925760405163295f44f760e21b81525f600482015260248101839052604401610827565b600882815481106110a5576110a5612dbc565b905f5260205f2001549050919050565b60605f6110c1836113f5565b90505f8167ffffffffffffffff8111156110dd576110dd612bbb565b604051908082528060200260200182016040528015611106578160200160208202803683370190505b5090505f5b828110156111425761111d8582610f81565b82828151811061112f5761112f612dbc565b602090810291909101015260010161110b565b509392505050565b611152611f06565b600f805460ff191660011790556040517fe22fe3f5d6f7795ba37856bc3be28cbdd1ffd74fef9eeec56d2d55de3c7ded80905f90a1565b5f6107c982611f33565b7f0000000000000000000000000000000000000000000000000000000000000000600d5411156112055760405162461bcd60e51b815260206004820152601b60248201527f416c6c20746f6b656e732068617665206265656e206d696e74656400000000006044820152606401610827565b7f000000000000000000000000000000000000000000000000000000000000000043106112745760405162461bcd60e51b815260206004820152601860248201527f4d696e74696e6720706572696f642068617320656e64656400000000000000006044820152606401610827565b61127c611fde565b5f6112c77f00000000000000000000000000000000000000000000000000000000000000007f0000000000000000000000000000000000000000000000000000000000000000612d57565b6040516323b872dd60e01b81526001600160a01b038481166004830152306024830152604482018390529192507f0000000000000000000000000000000000000000000000000000000000000000909116906323b872dd906064016020604051808303815f875af115801561133e573d5f5f3e3d5ffd5b505050506040513d601f19601f820116820180604052508101906113629190612cdd565b5061136f82600d54612008565b6001600160a01b0382165f908152601060205260408120439055600d80549161139783612da4565b9190505550816001600160a01b03167f30385c845b448a36257a6a1716e6ad2e1bc2cbe333cde1e69fe849ad6511adfe6001600d546113d69190612d44565b60405190815260200160405180910390a2506113f26001600b55565b50565b5f6001600160a01b03821661141f576040516322718ad960e21b81525f6004820152602401610827565b506001600160a01b03165f9081526003602052604090205490565b611442611f06565b6110355f612021565b611453611f06565b611035612072565b611463611f06565b6040516370a0823160e01b81523060048201525f907f00000000000000000000000000000000000000000000000000000000000000006001600160a01b0316906370a0823190602401602060405180830381865afa1580156114c7573d5f5f3e3d5ffd5b505050506040513d601f19601f820116820180604052508101906114eb9190612d8d565b90505f81116115335760405162461bcd60e51b81526020600482015260146024820152734e6f207969656c6420746f20776974686472617760601b6044820152606401610827565b7f00000000000000000000000000000000000000000000000000000000000000006001600160a01b031663a9059cbb611574600a546001600160a01b031690565b6040516001600160e01b031960e084901b1681526001600160a01b039091166004820152602481018490526044016020604051808303815f875af11580156115be573d5f5f3e3d5ffd5b505050506040513d601f19601f820116820180604052508101906115e29190612cdd565b506040518181527f0593b6478e75febc801592f0b8e23cdd636359ed892d442cdd594924b48149719060200160405180910390a150565b6060600180546109e790612cf8565b610a9a3383836120af565b61163e848484610ec7565b610f4a338585858561214d565b611653611fde565b600f5460ff1615156001146116aa5760405162461bcd60e51b815260206004820152601a60248201527f526564656d7074696f6e206e6f7420616c6c6f776564207965740000000000006044820152606401610827565b600f5460ff6101009091041615156001146117075760405162461bcd60e51b815260206004820152601760248201527f436f6e7472616374206e6f742066756e646564207965740000000000000000006044820152606401610827565b335f611712826113f5565b116117555760405162461bcd60e51b81526020600482015260136024820152724e6f20746f6b656e7320746f2072656465656d60681b6044820152606401610827565b5f61175f336113f5565b90505f6117ac7f00000000000000000000000000000000000000000000000000000000000000007f0000000000000000000000000000000000000000000000000000000000000000612d57565b90505f6117b98383612d76565b6040516370a0823160e01b815230600482015290915081906001600160a01b037f000000000000000000000000000000000000000000000000000000000000000016906370a0823190602401602060405180830381865afa158015611820573d5f5f3e3d5ffd5b505050506040513d601f19601f820116820180604052508101906118449190612d8d565b101561189c5760405162461bcd60e51b815260206004820152602160248201527f496e73756666696369656e742066756e647320666f7220726564656d7074696f6044820152603760f91b6064820152608401610827565b5f6118a6336113f5565b11156118c8575f6118b7335f610f81565b90506118c281612275565b5061189c565b60405163a9059cbb60e01b8152336004820152602481018290527f00000000000000000000000000000000000000000000000000000000000000006001600160a01b03169063a9059cbb906044016020604051808303815f875af1158015611932573d5f5f3e3d5ffd5b505050506040513d601f19601f820116820180604052508101906119569190612cdd565b5060405181815233907f4896181ff8f4543cc00db9fe9b6fb7e6f032b7eb772c72ab1ec1b4d2e03b93699060200160405180910390a2505050506110356001600b55565b60606119a582611f33565b505f6119bb60408051602081019091525f815290565b90505f8151116119d95760405180602001604052805f815250611a04565b806119e3846122ad565b6040516020016119f4929190612de7565b6040516020818303038152906040525b9392505050565b5f7f0000000000000000000000000000000000000000000000000000000000000000431015611a3957505f90565b62034bc0611a677f000000000000000000000000000000000000000000000000000000000000000043612d44565b611a719190612d57565b610b85906001612dfb565b611a84611fde565b5f611a8d611a0b565b90505f8111611ad85760405162461bcd60e51b8152602060048201526017602482015276141c9bda9958dd081b9bdd081cdd185c9d1959081e595d604a1b6044820152606401610827565b5f8181526011602052604090205460ff16611b435760405162461bcd60e51b815260206004820152602560248201527f43757272656e74206d6f6e7468206e6f742066756e64656420627920746f6b656044820152643734bd32b960d91b6064820152608401610827565b5f611b4d336113f5565b335f9081526010602052604081205491925090611b6a9043612d44565b90505f8282600e54611b7c9190612d76565b611b869190612d76565b6040516370a0823160e01b815230600482015290915081906001600160a01b037f000000000000000000000000000000000000000000000000000000000000000016906370a0823190602401602060405180830381865afa158015611bed573d5f5f3e3d5ffd5b505050506040513d601f19601f82011682018060405250810190611c119190612d8d565b1015611c5f5760405162461bcd60e51b815260206004820152601a60248201527f496e73756666696369656e74207969656c642062616c616e63650000000000006044820152606401610827565b5f611c69336113f5565b11611ca85760405162461bcd60e51b815260206004820152600f60248201526e139bc81d1bdad95b9cc81bdddb9959608a1b6044820152606401610827565b335f90815260106020526040812054611cc19043612d44565b90505f611ccd336113f5565b82600e54611cdb9190612d76565b611ce59190612d76565b90505f8111611d2d5760405162461bcd60e51b81526020600482015260146024820152734e6f207969656c6420746f20776974686472617760601b6044820152606401610827565b60405163a9059cbb60e01b8152336004820152602481018290527f00000000000000000000000000000000000000000000000000000000000000006001600160a01b03169063a9059cbb906044016020604051808303815f875af1158015611d97573d5f5f3e3d5ffd5b505050506040513d601f19601f82011682018060405250810190611dbb9190612cdd565b50335f8181526010602052604090819020439055517faed495d70193dd915b96156dc90595c95aa5cc4f6985a2cd79286232d96ae8e290611dff9084815260200190565b60405180910390a25050505050506110356001600b55565b5f5f5f5f611e23611a0b565b93505f8411611e33576001611e45565b5f8481526011602052604090205460ff165b600f54949590947f0000000000000000000000000000000000000000000000000000000000000000431015945060ff1692509050565b6001600160a01b039182165f90815260056020908152604080832093909416825291909152205460ff1690565b611eb0611f06565b6001600160a01b038116611ed957604051631e4fbdf760e01b81525f6004820152602401610827565b6113f281612021565b5f6001600160e01b0319821663780e9d6360e01b14806107c957506107c98261233d565b600a546001600160a01b031633146110355760405163118cdaa760e01b8152336004820152602401610827565b5f818152600260205260408120546001600160a01b0316806107c957604051637e27328960e01b815260048101849052602401610827565b611051838383600161238c565b5f611f84848484612490565b949350505050565b611f9461255b565b600c805460ff191690557f5db9ee0a495bf2e6ff9c91a7834c1ba4fdd244a5e8aa4e537bd38aeae4b073aa335b6040516001600160a01b03909116815260200160405180910390a1565b6002600b540361200157604051633ee5aeb560e01b815260040160405180910390fd5b6002600b55565b610a9a828260405180602001604052805f81525061257e565b600a80546001600160a01b038381166001600160a01b0319831681179093556040519116919082907f8be0079c531659141344cd1fd0a4f28419497f9722a3daafe3b4186f6b6457e0905f90a35050565b61207a612595565b600c805460ff191660011790557f62e78cea01bee320cd4e420270b5ea74000d11b0c9f74754ebdbfc544b05a258611fc13390565b6001600160a01b0382166120e157604051630b61174360e31b81526001600160a01b0383166004820152602401610827565b6001600160a01b038381165f81815260056020908152604080832094871680845294825291829020805460ff191686151590811790915591519182527f17307eab39ab6107e8899845ad3d59bd9653f200f220920489ca2b5937696c31910160405180910390a3505050565b6001600160a01b0383163b1561226e57604051630a85bd0160e11b81526001600160a01b0384169063150b7a029061218f908890889087908790600401612e0e565b6020604051808303815f875af19250505080156121c9575060408051601f3d908101601f191682019092526121c691810190612e4a565b60015b612230573d8080156121f6576040519150601f19603f3d011682016040523d82523d5f602084013e6121fb565b606091505b5080515f0361222857604051633250574960e11b81526001600160a01b0385166004820152602401610827565b805160208201fd5b6001600160e01b03198116630a85bd0160e11b1461226c57604051633250574960e11b81526001600160a01b0385166004820152602401610827565b505b5050505050565b5f6122815f835f611f78565b90506001600160a01b038116610a9a57604051637e27328960e01b815260048101839052602401610827565b60605f6122b9836125b9565b60010190505f8167ffffffffffffffff8111156122d8576122d8612bbb565b6040519080825280601f01601f191660200182016040528015612302576020820181803683370190505b5090508181016020015b5f19016f181899199a1a9b1b9c1cb0b131b232b360811b600a86061a8153600a850494508461230c57509392505050565b5f6001600160e01b031982166380ac58cd60e01b148061236d57506001600160e01b03198216635b5e139f60e01b145b806107c957506301ffc9a760e01b6001600160e01b03198316146107c9565b80806123a057506001600160a01b03821615155b15612461575f6123af84611f33565b90506001600160a01b038316158015906123db5750826001600160a01b0316816001600160a01b031614155b80156123ee57506123ec8184611e7b565b155b156124175760405163a9fbf51f60e01b81526001600160a01b0384166004820152602401610827565b811561245f5783856001600160a01b0316826001600160a01b03167f8c5be1e5ebec7d5bd14f71427d1e84f3dd0314c0f7b2291e5b200ac8c7c3b92560405160405180910390a45b505b50505f90815260046020526040902080546001600160a01b0319166001600160a01b0392909216919091179055565b5f5f61249d858585612690565b90506001600160a01b0381166124f9576124f484600880545f838152600960205260408120829055600182018355919091527ff3f7a9fe364faab93b216da50a3214154f22a0a2b415b23a84c8169e8b636ee30155565b61251c565b846001600160a01b0316816001600160a01b03161461251c5761251c8185612782565b6001600160a01b03851661253857612533846127ff565b611f84565b846001600160a01b0316816001600160a01b031614611f8457611f8485856128a6565b600c5460ff1661103557604051638dfc202b60e01b815260040160405180910390fd5b61258883836128f4565b611051335f85858561214d565b600c5460ff16156110355760405163d93c066560e01b815260040160405180910390fd5b5f8072184f03e93ff9f4daa797ed6e38ed64bf6a1f0160401b83106125f75772184f03e93ff9f4daa797ed6e38ed64bf6a1f0160401b830492506040015b6d04ee2d6d415b85acef81000000008310612623576d04ee2d6d415b85acef8100000000830492506020015b662386f26fc10000831061264157662386f26fc10000830492506010015b6305f5e1008310612659576305f5e100830492506008015b612710831061266d57612710830492506004015b6064831061267f576064830492506002015b600a83106107c95760010192915050565b5f828152600260205260408120546001600160a01b03908116908316156126bc576126bc818486612955565b6001600160a01b038116156126f6576126d75f855f5f61238c565b6001600160a01b0381165f90815260036020526040902080545f190190555b6001600160a01b03851615612724576001600160a01b0385165f908152600360205260409020805460010190555b5f8481526002602052604080822080546001600160a01b0319166001600160a01b0389811691821790925591518793918516917fddf252ad1be2c89b69c2b068fc378daa952ba7f163c4a11628f55a4df523b3ef91a4949350505050565b5f61278c836113f5565b5f838152600760209081526040808320546001600160a01b03881684526006909252909120919250908183146127e1575f83815260208281526040808320548584528184208190558352600790915290208290555b5f938452600760209081526040808620869055938552525081205550565b6008545f9061281090600190612d44565b5f838152600960205260408120546008805493945090928490811061283757612837612dbc565b905f5260205f2001549050806008838154811061285657612856612dbc565b5f91825260208083209091019290925582815260099091526040808220849055858252812055600880548061288d5761288d612e65565b600190038181905f5260205f20015f9055905550505050565b5f60016128b2846113f5565b6128bc9190612d44565b6001600160a01b039093165f908152600660209081526040808320868452825280832085905593825260079052919091209190915550565b6001600160a01b03821661291d57604051633250574960e11b81525f6004820152602401610827565b5f61292983835f611f78565b90506001600160a01b03811615611051576040516339e3563760e11b81525f6004820152602401610827565b6129608383836129b9565b611051576001600160a01b03831661298e57604051637e27328960e01b815260048101829052602401610827565b60405163177e802f60e01b81526001600160a01b038316600482015260248101829052604401610827565b5f6001600160a01b03831615801590611f845750826001600160a01b0316846001600160a01b031614806129f257506129f28484611e7b565b80611f845750505f908152600460205260409020546001600160a01b03908116911614919050565b6001600160e01b0319811681146113f2575f5ffd5b5f60208284031215612a3f575f5ffd5b8135611a0481612a1a565b5f81518084528060208401602086015e5f602082860101526020601f19601f83011685010191505092915050565b602081525f611a046020830184612a4a565b5f60208284031215612a9a575f5ffd5b5035919050565b80356001600160a01b0381168114612ab7575f5ffd5b919050565b5f5f60408385031215612acd575f5ffd5b612ad683612aa1565b946020939093013593505050565b602080825282518282018190525f918401906040840190835b81811015612b1b578351835260209384019390920191600101612afd565b509095945050505050565b5f5f5f60608486031215612b38575f5ffd5b612b4184612aa1565b9250612b4f60208501612aa1565b929592945050506040919091013590565b5f60208284031215612b70575f5ffd5b611a0482612aa1565b80151581146113f2575f5ffd5b5f5f60408385031215612b97575f5ffd5b612ba083612aa1565b91506020830135612bb081612b79565b809150509250929050565b634e487b7160e01b5f52604160045260245ffd5b5f5f5f5f60808587031215612be2575f5ffd5b612beb85612aa1565b9350612bf960208601612aa1565b925060408501359150606085013567ffffffffffffffff811115612c1b575f5ffd5b8501601f81018713612c2b575f5ffd5b803567ffffffffffffffff811115612c4557612c45612bbb565b604051601f8201601f19908116603f0116810167ffffffffffffffff81118282101715612c7457612c74612bbb565b604052818152828201602001891015612c8b575f5ffd5b816020840160208301375f6020838301015280935050505092959194509250565b5f5f60408385031215612cbd575f5ffd5b612cc683612aa1565b9150612cd460208401612aa1565b90509250929050565b5f60208284031215612ced575f5ffd5b8151611a0481612b79565b600181811c90821680612d0c57607f821691505b602082108103612d2a57634e487b7160e01b5f52602260045260245ffd5b50919050565b634e487b7160e01b5f52601160045260245ffd5b818103818111156107c9576107c9612d30565b5f82612d7157634e487b7160e01b5f52601260045260245ffd5b500490565b80820281158282048414176107c9576107c9612d30565b5f60208284031215612d9d575f5ffd5b5051919050565b5f60018201612db557612db5612d30565b5060010190565b634e487b7160e01b5f52603260045260245ffd5b5f81518060208401855e5f93019283525090919050565b5f611f84612df58386612dd0565b84612dd0565b808201808211156107c9576107c9612d30565b6001600160a01b03858116825284166020820152604081018390526080606082018190525f90612e4090830184612a4a565b9695505050505050565b5f60208284031215612e5a575f5ffd5b8151611a0481612a1a565b634e487b7160e01b5f52603160045260245ffdfea2646970667358221220123cc1327c7e6818c9989f5603fe41f3ef8893e6dd0cdef72ecbbe6520c74e9864736f6c634300081c0033a2646970667358221220102199339c320a4852b3cea670e084594864c5cf14960ea760e9d5088520d38264736f6c634300081c0033",
        "linkReferences": {}
    },
    "methodIdentifiers": {
        "addSupportedStablecoin(address)": "24532867",
        "blacklist(address)": "f9f92be4",
        "blacklistAddress(address)": "f3290d75",
        "deactivateProperty(uint256)": "7ca28bc6",
        "emergencyPauseAll()": "0775ef0f",
        "getActiveProperties()": "eb81e098",
        "getAllProperties()": "3d51402c",
        "getPlatformStats()": "136d8883",
        "getPropertiesByStablecoin(address)": "58cc58fe",
        "getPropertyBasics(uint256)": "634c1516",
        "getPropertyInfo(uint256)": "40f0a055",
        "getSupportedStablecoins()": "7c6f73eb",
        "getTotalProperties()": "17aaf5ed",
        "isBlacklisted(address)": "fe575a87",
        "isLandZenContract(address)": "52591aa9",
        "isLandZenProperty(address)": "8a74f2b8",
        "isStablecoinSupported(address)": "8d486414",
        "landCount()": "d7bce658",
        "owner()": "8da5cb5b",
        "paused()": "5c975abb",
        "properties(uint256)": "f7b10808",
        "reactivateProperty(uint256)": "b416eaa5",
        "removeSupportedStablecoin(address)": "d5d3f78b",
        "renounceOwnership()": "715018a6",
        "stablecoinList(uint256)": "4450b472",
        "supportedStablecoins(address)": "bf7d9119",
        "tokenizeProperty(address,string,string,uint256,uint256,uint256,uint256,uint256)": "32af1e5f",
        "transferOwnership(address)": "f2fde38b",
        "unblacklistAddress(address)": "45e34949",
        "unpauseAll()": "8a2ddd03"
    },
    "id": 42
}