{
    "abi": [
        {
            "type": "constructor",
            "inputs": [
                {
                    "name": "_paymentStableToken",
                    "type": "address",
                    "internalType": "address"
                },
                {
                    "name": "_initialValue",
                    "type": "uint256",
                    "internalType": "uint256"
                },
                {
                    "name": "_totalSupply",
                    "type": "uint256",
                    "internalType": "uint256"
                },
                {
                    "name": "_yieldRate",
                    "type": "uint256",
                    "internalType": "uint256"
                },
                {
                    "name": "_startDate",
                    "type": "uint256",
                    "internalType": "uint256"
                },
                {
                    "name": "_landType",
                    "type": "uint256",
                    "internalType": "uint256"
                },
                {
                    "name": "_name",
                    "type": "string",
                    "internalType": "string"
                },
                {
                    "name": "_symbol",
                    "type": "string",
                    "internalType": "string"
                }
            ],
            "stateMutability": "nonpayable"
        },
        {
            "type": "function",
            "name": "MONTH_IN_BLOCKS",
            "inputs": [],
            "outputs": [
                {
                    "name": "",
                    "type": "uint256",
                    "internalType": "uint256"
                }
            ],
            "stateMutability": "view"
        },
        {
            "type": "function",
            "name": "approve",
            "inputs": [
                {
                    "name": "to",
                    "type": "address",
                    "internalType": "address"
                },
                {
                    "name": "tokenId",
                    "type": "uint256",
                    "internalType": "uint256"
                }
            ],
            "outputs": [],
            "stateMutability": "nonpayable"
        },
        {
            "type": "function",
            "name": "balanceOf",
            "inputs": [
                {
                    "name": "owner",
                    "type": "address",
                    "internalType": "address"
                }
            ],
            "outputs": [
                {
                    "name": "",
                    "type": "uint256",
                    "internalType": "uint256"
                }
            ],
            "stateMutability": "view"
        },
        {
            "type": "function",
            "name": "calculateRequiredMonthlyYield",
            "inputs": [],
            "outputs": [
                {
                    "name": "",
                    "type": "uint256",
                    "internalType": "uint256"
                }
            ],
            "stateMutability": "view"
        },
        {
            "type": "function",
            "name": "depositMonthlyYield",
            "inputs": [],
            "outputs": [],
            "stateMutability": "nonpayable"
        },
        {
            "type": "function",
            "name": "emergencyRedemption",
            "inputs": [],
            "outputs": [],
            "stateMutability": "nonpayable"
        },
        {
            "type": "function",
            "name": "emergencyWithdrawUnclaimedYield",
            "inputs": [],
            "outputs": [],
            "stateMutability": "nonpayable"
        },
        {
            "type": "function",
            "name": "funded",
            "inputs": [],
            "outputs": [
                {
                    "name": "",
                    "type": "bool",
                    "internalType": "bool"
                }
            ],
            "stateMutability": "view"
        },
        {
            "type": "function",
            "name": "getApproved",
            "inputs": [
                {
                    "name": "tokenId",
                    "type": "uint256",
                    "internalType": "uint256"
                }
            ],
            "outputs": [
                {
                    "name": "",
                    "type": "address",
                    "internalType": "address"
                }
            ],
            "stateMutability": "view"
        },
        {
            "type": "function",
            "name": "getCurrentHolders",
            "inputs": [],
            "outputs": [
                {
                    "name": "",
                    "type": "uint256",
                    "internalType": "uint256"
                }
            ],
            "stateMutability": "view"
        },
        {
            "type": "function",
            "name": "getCurrentMonth",
            "inputs": [],
            "outputs": [
                {
                    "name": "",
                    "type": "uint256",
                    "internalType": "uint256"
                }
            ],
            "stateMutability": "view"
        },
        {
            "type": "function",
            "name": "getCurrentReserved",
            "inputs": [],
            "outputs": [
                {
                    "name": "",
                    "type": "uint256",
                    "internalType": "uint256"
                }
            ],
            "stateMutability": "view"
        },
        {
            "type": "function",
            "name": "getMonthlyYieldLiability",
            "inputs": [],
            "outputs": [
                {
                    "name": "",
                    "type": "uint256",
                    "internalType": "uint256"
                }
            ],
            "stateMutability": "view"
        },
        {
            "type": "function",
            "name": "getProjectStatus",
            "inputs": [],
            "outputs": [
                {
                    "name": "currentMonth",
                    "type": "uint256",
                    "internalType": "uint256"
                },
                {
                    "name": "currentMonthFunded",
                    "type": "bool",
                    "internalType": "bool"
                },
                {
                    "name": "projectActive",
                    "type": "bool",
                    "internalType": "bool"
                },
                {
                    "name": "redemptionAvailable",
                    "type": "bool",
                    "internalType": "bool"
                }
            ],
            "stateMutability": "view"
        },
        {
            "type": "function",
            "name": "getTokenStats",
            "inputs": [],
            "outputs": [
                {
                    "name": "activeTokens",
                    "type": "uint256",
                    "internalType": "uint256"
                },
                {
                    "name": "totalEverMinted",
                    "type": "uint256",
                    "internalType": "uint256"
                },
                {
                    "name": "maxSupply",
                    "type": "uint256",
                    "internalType": "uint256"
                },
                {
                    "name": "remainingToMint",
                    "type": "uint256",
                    "internalType": "uint256"
                },
                {
                    "name": "mintingOpen",
                    "type": "bool",
                    "internalType": "bool"
                },
                {
                    "name": "tokenPrice",
                    "type": "uint256",
                    "internalType": "uint256"
                }
            ],
            "stateMutability": "view"
        },
        {
            "type": "function",
            "name": "getUnfundedMonths",
            "inputs": [],
            "outputs": [
                {
                    "name": "",
                    "type": "uint256[]",
                    "internalType": "uint256[]"
                }
            ],
            "stateMutability": "view"
        },
        {
            "type": "function",
            "name": "getUserTokens",
            "inputs": [
                {
                    "name": "user",
                    "type": "address",
                    "internalType": "address"
                }
            ],
            "outputs": [
                {
                    "name": "",
                    "type": "uint256[]",
                    "internalType": "uint256[]"
                }
            ],
            "stateMutability": "view"
        },
        {
            "type": "function",
            "name": "getYieldEconomics",
            "inputs": [],
            "outputs": [
                {
                    "name": "yieldRatePerBlock",
                    "type": "uint256",
                    "internalType": "uint256"
                },
                {
                    "name": "yieldRatePerMonth",
                    "type": "uint256",
                    "internalType": "uint256"
                },
                {
                    "name": "totalSupplyBasis",
                    "type": "uint256",
                    "internalType": "uint256"
                },
                {
                    "name": "actualMinted",
                    "type": "uint256",
                    "internalType": "uint256"
                },
                {
                    "name": "monthlyYieldRequired",
                    "type": "uint256",
                    "internalType": "uint256"
                },
                {
                    "name": "currentReserves",
                    "type": "uint256",
                    "internalType": "uint256"
                }
            ],
            "stateMutability": "view"
        },
        {
            "type": "function",
            "name": "getYieldPerTokenPerMonth",
            "inputs": [],
            "outputs": [
                {
                    "name": "",
                    "type": "uint256",
                    "internalType": "uint256"
                }
            ],
            "stateMutability": "view"
        },
        {
            "type": "function",
            "name": "i_initialValue",
            "inputs": [],
            "outputs": [
                {
                    "name": "",
                    "type": "uint256",
                    "internalType": "uint256"
                }
            ],
            "stateMutability": "view"
        },
        {
            "type": "function",
            "name": "i_landType",
            "inputs": [],
            "outputs": [
                {
                    "name": "",
                    "type": "uint256",
                    "internalType": "uint256"
                }
            ],
            "stateMutability": "view"
        },
        {
            "type": "function",
            "name": "i_startDate",
            "inputs": [],
            "outputs": [
                {
                    "name": "",
                    "type": "uint256",
                    "internalType": "uint256"
                }
            ],
            "stateMutability": "view"
        },
        {
            "type": "function",
            "name": "i_totalSupply",
            "inputs": [],
            "outputs": [
                {
                    "name": "",
                    "type": "uint256",
                    "internalType": "uint256"
                }
            ],
            "stateMutability": "view"
        },
        {
            "type": "function",
            "name": "isApprovedForAll",
            "inputs": [
                {
                    "name": "owner",
                    "type": "address",
                    "internalType": "address"
                },
                {
                    "name": "operator",
                    "type": "address",
                    "internalType": "address"
                }
            ],
            "outputs": [
                {
                    "name": "",
                    "type": "bool",
                    "internalType": "bool"
                }
            ],
            "stateMutability": "view"
        },
        {
            "type": "function",
            "name": "isCurrentMonthFunded",
            "inputs": [],
            "outputs": [
                {
                    "name": "",
                    "type": "bool",
                    "internalType": "bool"
                }
            ],
            "stateMutability": "view"
        },
        {
            "type": "function",
            "name": "isMonthFunded",
            "inputs": [
                {
                    "name": "month",
                    "type": "uint256",
                    "internalType": "uint256"
                }
            ],
            "outputs": [
                {
                    "name": "",
                    "type": "bool",
                    "internalType": "bool"
                }
            ],
            "stateMutability": "view"
        },
        {
            "type": "function",
            "name": "lastWithdraw",
            "inputs": [
                {
                    "name": "",
                    "type": "address",
                    "internalType": "address"
                }
            ],
            "outputs": [
                {
                    "name": "",
                    "type": "uint256",
                    "internalType": "uint256"
                }
            ],
            "stateMutability": "view"
        },
        {
            "type": "function",
            "name": "lastYieldDeposit",
            "inputs": [],
            "outputs": [
                {
                    "name": "",
                    "type": "uint256",
                    "internalType": "uint256"
                }
            ],
            "stateMutability": "view"
        },
        {
            "type": "function",
            "name": "mint",
            "inputs": [
                {
                    "name": "to",
                    "type": "address",
                    "internalType": "address"
                }
            ],
            "outputs": [],
            "stateMutability": "nonpayable"
        },
        {
            "type": "function",
            "name": "monthlyDepositsComplete",
            "inputs": [
                {
                    "name": "",
                    "type": "uint256",
                    "internalType": "uint256"
                }
            ],
            "outputs": [
                {
                    "name": "",
                    "type": "bool",
                    "internalType": "bool"
                }
            ],
            "stateMutability": "view"
        },
        {
            "type": "function",
            "name": "name",
            "inputs": [],
            "outputs": [
                {
                    "name": "",
                    "type": "string",
                    "internalType": "string"
                }
            ],
            "stateMutability": "view"
        },
        {
            "type": "function",
            "name": "owner",
            "inputs": [],
            "outputs": [
                {
                    "name": "",
                    "type": "address",
                    "internalType": "address"
                }
            ],
            "stateMutability": "view"
        },
        {
            "type": "function",
            "name": "ownerOf",
            "inputs": [
                {
                    "name": "tokenId",
                    "type": "uint256",
                    "internalType": "uint256"
                }
            ],
            "outputs": [
                {
                    "name": "",
                    "type": "address",
                    "internalType": "address"
                }
            ],
            "stateMutability": "view"
        },
        {
            "type": "function",
            "name": "pause",
            "inputs": [],
            "outputs": [],
            "stateMutability": "nonpayable"
        },
        {
            "type": "function",
            "name": "paused",
            "inputs": [],
            "outputs": [
                {
                    "name": "",
                    "type": "bool",
                    "internalType": "bool"
                }
            ],
            "stateMutability": "view"
        },
        {
            "type": "function",
            "name": "paymentStableToken",
            "inputs": [],
            "outputs": [
                {
                    "name": "",
                    "type": "address",
                    "internalType": "contract IERC20"
                }
            ],
            "stateMutability": "view"
        },
        {
            "type": "function",
            "name": "redeem",
            "inputs": [],
            "outputs": [],
            "stateMutability": "nonpayable"
        },
        {
            "type": "function",
            "name": "redeemable",
            "inputs": [],
            "outputs": [
                {
                    "name": "",
                    "type": "bool",
                    "internalType": "bool"
                }
            ],
            "stateMutability": "view"
        },
        {
            "type": "function",
            "name": "renounceOwnership",
            "inputs": [],
            "outputs": [],
            "stateMutability": "nonpayable"
        },
        {
            "type": "function",
            "name": "safeTransferFrom",
            "inputs": [
                {
                    "name": "from",
                    "type": "address",
                    "internalType": "address"
                },
                {
                    "name": "to",
                    "type": "address",
                    "internalType": "address"
                },
                {
                    "name": "tokenId",
                    "type": "uint256",
                    "internalType": "uint256"
                }
            ],
            "outputs": [],
            "stateMutability": "nonpayable"
        },
        {
            "type": "function",
            "name": "safeTransferFrom",
            "inputs": [
                {
                    "name": "from",
                    "type": "address",
                    "internalType": "address"
                },
                {
                    "name": "to",
                    "type": "address",
                    "internalType": "address"
                },
                {
                    "name": "tokenId",
                    "type": "uint256",
                    "internalType": "uint256"
                },
                {
                    "name": "data",
                    "type": "bytes",
                    "internalType": "bytes"
                }
            ],
            "outputs": [],
            "stateMutability": "nonpayable"
        },
        {
            "type": "function",
            "name": "setApprovalForAll",
            "inputs": [
                {
                    "name": "operator",
                    "type": "address",
                    "internalType": "address"
                },
                {
                    "name": "approved",
                    "type": "bool",
                    "internalType": "bool"
                }
            ],
            "outputs": [],
            "stateMutability": "nonpayable"
        },
        {
            "type": "function",
            "name": "setYieldRate",
            "inputs": [
                {
                    "name": "_newYieldRate",
                    "type": "uint256",
                    "internalType": "uint256"
                }
            ],
            "outputs": [],
            "stateMutability": "nonpayable"
        },
        {
            "type": "function",
            "name": "supportsInterface",
            "inputs": [
                {
                    "name": "interfaceId",
                    "type": "bytes4",
                    "internalType": "bytes4"
                }
            ],
            "outputs": [
                {
                    "name": "",
                    "type": "bool",
                    "internalType": "bool"
                }
            ],
            "stateMutability": "view"
        },
        {
            "type": "function",
            "name": "symbol",
            "inputs": [],
            "outputs": [
                {
                    "name": "",
                    "type": "string",
                    "internalType": "string"
                }
            ],
            "stateMutability": "view"
        },
        {
            "type": "function",
            "name": "tokenByIndex",
            "inputs": [
                {
                    "name": "index",
                    "type": "uint256",
                    "internalType": "uint256"
                }
            ],
            "outputs": [
                {
                    "name": "",
                    "type": "uint256",
                    "internalType": "uint256"
                }
            ],
            "stateMutability": "view"
        },
        {
            "type": "function",
            "name": "tokenIdCounter",
            "inputs": [],
            "outputs": [
                {
                    "name": "",
                    "type": "uint256",
                    "internalType": "uint256"
                }
            ],
            "stateMutability": "view"
        },
        {
            "type": "function",
            "name": "tokenOfOwnerByIndex",
            "inputs": [
                {
                    "name": "owner",
                    "type": "address",
                    "internalType": "address"
                },
                {
                    "name": "index",
                    "type": "uint256",
                    "internalType": "uint256"
                }
            ],
            "outputs": [
                {
                    "name": "",
                    "type": "uint256",
                    "internalType": "uint256"
                }
            ],
            "stateMutability": "view"
        },
        {
            "type": "function",
            "name": "tokenURI",
            "inputs": [
                {
                    "name": "tokenId",
                    "type": "uint256",
                    "internalType": "uint256"
                }
            ],
            "outputs": [
                {
                    "name": "",
                    "type": "string",
                    "internalType": "string"
                }
            ],
            "stateMutability": "view"
        },
        {
            "type": "function",
            "name": "totalSupply",
            "inputs": [],
            "outputs": [
                {
                    "name": "",
                    "type": "uint256",
                    "internalType": "uint256"
                }
            ],
            "stateMutability": "view"
        },
        {
            "type": "function",
            "name": "transferFrom",
            "inputs": [
                {
                    "name": "from",
                    "type": "address",
                    "internalType": "address"
                },
                {
                    "name": "to",
                    "type": "address",
                    "internalType": "address"
                },
                {
                    "name": "tokenId",
                    "type": "uint256",
                    "internalType": "uint256"
                }
            ],
            "outputs": [],
            "stateMutability": "nonpayable"
        },
        {
            "type": "function",
            "name": "transferOwnership",
            "inputs": [
                {
                    "name": "newOwner",
                    "type": "address",
                    "internalType": "address"
                }
            ],
            "outputs": [],
            "stateMutability": "nonpayable"
        },
        {
            "type": "function",
            "name": "unpause",
            "inputs": [],
            "outputs": [],
            "stateMutability": "nonpayable"
        },
        {
            "type": "function",
            "name": "validateFundingForRedemption",
            "inputs": [],
            "outputs": [],
            "stateMutability": "nonpayable"
        },
        {
            "type": "function",
            "name": "withdrawYield",
            "inputs": [],
            "outputs": [],
            "stateMutability": "nonpayable"
        },
        {
            "type": "function",
            "name": "yieldRate",
            "inputs": [],
            "outputs": [
                {
                    "name": "",
                    "type": "uint256",
                    "internalType": "uint256"
                }
            ],
            "stateMutability": "view"
        },
        {
            "type": "event",
            "name": "Approval",
            "inputs": [
                {
                    "name": "owner",
                    "type": "address",
                    "indexed": true,
                    "internalType": "address"
                },
                {
                    "name": "approved",
                    "type": "address",
                    "indexed": true,
                    "internalType": "address"
                },
                {
                    "name": "tokenId",
                    "type": "uint256",
                    "indexed": true,
                    "internalType": "uint256"
                }
            ],
            "anonymous": false
        },
        {
            "type": "event",
            "name": "ApprovalForAll",
            "inputs": [
                {
                    "name": "owner",
                    "type": "address",
                    "indexed": true,
                    "internalType": "address"
                },
                {
                    "name": "operator",
                    "type": "address",
                    "indexed": true,
                    "internalType": "address"
                },
                {
                    "name": "approved",
                    "type": "bool",
                    "indexed": false,
                    "internalType": "bool"
                }
            ],
            "anonymous": false
        },
        {
            "type": "event",
            "name": "EmergencyRedemptionTriggered",
            "inputs": [],
            "anonymous": false
        },
        {
            "type": "event",
            "name": "EmergencyYieldWithdrawal",
            "inputs": [
                {
                    "name": "amount",
                    "type": "uint256",
                    "indexed": false,
                    "internalType": "uint256"
                }
            ],
            "anonymous": false
        },
        {
            "type": "event",
            "name": "FundingValidated",
            "inputs": [],
            "anonymous": false
        },
        {
            "type": "event",
            "name": "Minted",
            "inputs": [
                {
                    "name": "to",
                    "type": "address",
                    "indexed": true,
                    "internalType": "address"
                },
                {
                    "name": "tokenId",
                    "type": "uint256",
                    "indexed": false,
                    "internalType": "uint256"
                }
            ],
            "anonymous": false
        },
        {
            "type": "event",
            "name": "MonthlyYieldDeposited",
            "inputs": [
                {
                    "name": "month",
                    "type": "uint256",
                    "indexed": true,
                    "internalType": "uint256"
                },
                {
                    "name": "amount",
                    "type": "uint256",
                    "indexed": false,
                    "internalType": "uint256"
                }
            ],
            "anonymous": false
        },
        {
            "type": "event",
            "name": "OwnershipTransferred",
            "inputs": [
                {
                    "name": "previousOwner",
                    "type": "address",
                    "indexed": true,
                    "internalType": "address"
                },
                {
                    "name": "newOwner",
                    "type": "address",
                    "indexed": true,
                    "internalType": "address"
                }
            ],
            "anonymous": false
        },
        {
            "type": "event",
            "name": "Paused",
            "inputs": [
                {
                    "name": "account",
                    "type": "address",
                    "indexed": false,
                    "internalType": "address"
                }
            ],
            "anonymous": false
        },
        {
            "type": "event",
            "name": "Redeemed",
            "inputs": [
                {
                    "name": "redeemer",
                    "type": "address",
                    "indexed": true,
                    "internalType": "address"
                },
                {
                    "name": "amount",
                    "type": "uint256",
                    "indexed": false,
                    "internalType": "uint256"
                }
            ],
            "anonymous": false
        },
        {
            "type": "event",
            "name": "Transfer",
            "inputs": [
                {
                    "name": "from",
                    "type": "address",
                    "indexed": true,
                    "internalType": "address"
                },
                {
                    "name": "to",
                    "type": "address",
                    "indexed": true,
                    "internalType": "address"
                },
                {
                    "name": "tokenId",
                    "type": "uint256",
                    "indexed": true,
                    "internalType": "uint256"
                }
            ],
            "anonymous": false
        },
        {
            "type": "event",
            "name": "Unpaused",
            "inputs": [
                {
                    "name": "account",
                    "type": "address",
                    "indexed": false,
                    "internalType": "address"
                }
            ],
            "anonymous": false
        },
        {
            "type": "event",
            "name": "YieldRateUpdated",
            "inputs": [
                {
                    "name": "oldYieldRate",
                    "type": "uint256",
                    "indexed": false,
                    "internalType": "uint256"
                },
                {
                    "name": "newYieldRate",
                    "type": "uint256",
                    "indexed": false,
                    "internalType": "uint256"
                }
            ],
            "anonymous": false
        },
        {
            "type": "event",
            "name": "YieldWithdrawn",
            "inputs": [
                {
                    "name": "holder",
                    "type": "address",
                    "indexed": true,
                    "internalType": "address"
                },
                {
                    "name": "amount",
                    "type": "uint256",
                    "indexed": false,
                    "internalType": "uint256"
                }
            ],
            "anonymous": false
        },
        {
            "type": "error",
            "name": "ERC721EnumerableForbiddenBatchMint",
            "inputs": []
        },
        {
            "type": "error",
            "name": "ERC721IncorrectOwner",
            "inputs": [
                {
                    "name": "sender",
                    "type": "address",
                    "internalType": "address"
                },
                {
                    "name": "tokenId",
                    "type": "uint256",
                    "internalType": "uint256"
                },
                {
                    "name": "owner",
                    "type": "address",
                    "internalType": "address"
                }
            ]
        },
        {
            "type": "error",
            "name": "ERC721InsufficientApproval",
            "inputs": [
                {
                    "name": "operator",
                    "type": "address",
                    "internalType": "address"
                },
                {
                    "name": "tokenId",
                    "type": "uint256",
                    "internalType": "uint256"
                }
            ]
        },
        {
            "type": "error",
            "name": "ERC721InvalidApprover",
            "inputs": [
                {
                    "name": "approver",
                    "type": "address",
                    "internalType": "address"
                }
            ]
        },
        {
            "type": "error",
            "name": "ERC721InvalidOperator",
            "inputs": [
                {
                    "name": "operator",
                    "type": "address",
                    "internalType": "address"
                }
            ]
        },
        {
            "type": "error",
            "name": "ERC721InvalidOwner",
            "inputs": [
                {
                    "name": "owner",
                    "type": "address",
                    "internalType": "address"
                }
            ]
        },
        {
            "type": "error",
            "name": "ERC721InvalidReceiver",
            "inputs": [
                {
                    "name": "receiver",
                    "type": "address",
                    "internalType": "address"
                }
            ]
        },
        {
            "type": "error",
            "name": "ERC721InvalidSender",
            "inputs": [
                {
                    "name": "sender",
                    "type": "address",
                    "internalType": "address"
                }
            ]
        },
        {
            "type": "error",
            "name": "ERC721NonexistentToken",
            "inputs": [
                {
                    "name": "tokenId",
                    "type": "uint256",
                    "internalType": "uint256"
                }
            ]
        },
        {
            "type": "error",
            "name": "ERC721OutOfBoundsIndex",
            "inputs": [
                {
                    "name": "owner",
                    "type": "address",
                    "internalType": "address"
                },
                {
                    "name": "index",
                    "type": "uint256",
                    "internalType": "uint256"
                }
            ]
        },
        {
            "type": "error",
            "name": "EnforcedPause",
            "inputs": []
        },
        {
            "type": "error",
            "name": "ExpectedPause",
            "inputs": []
        },
        {
            "type": "error",
            "name": "InsufficientYieldReserved",
            "inputs": []
        },
        {
            "type": "error",
            "name": "OwnableInvalidOwner",
            "inputs": [
                {
                    "name": "owner",
                    "type": "address",
                    "internalType": "address"
                }
            ]
        },
        {
            "type": "error",
            "name": "OwnableUnauthorizedAccount",
            "inputs": [
                {
                    "name": "account",
                    "type": "address",
                    "internalType": "address"
                }
            ]
        },
        {
            "type": "error",
            "name": "ReentrancyGuardReentrantCall",
            "inputs": []
        }
    ],
    "bytecode": {
        "object": "0x6101206040526001600d55600f805461ffff19169055348015610020575f5ffd5b5060405161339538038061339583398101604081905261003f91610209565b3382825f61004d8382610340565b50600161005a8282610340565b5050506001600160a01b03811661008b57604051631e4fbdf760e01b81525f60048201526024015b60405180910390fd5b6100948161011b565b506001600b556001600160a01b0388166100f05760405162461bcd60e51b815260206004820152601a60248201527f496e76616c696420737461626c65636f696e20616464726573730000000000006044820152606401610082565b50506001600160a01b0390951660805260a09390935260c091909152600e5560e052610100526103fa565b600a80546001600160a01b038381166001600160a01b0319831681179093556040519116919082907f8be0079c531659141344cd1fd0a4f28419497f9722a3daafe3b4186f6b6457e0905f90a35050565b634e487b7160e01b5f52604160045260245ffd5b5f82601f83011261018f575f5ffd5b81516001600160401b038111156101a8576101a861016c565b604051601f8201601f19908116603f011681016001600160401b03811182821017156101d6576101d661016c565b6040528181528382016020018510156101ed575f5ffd5b8160208501602083015e5f918101602001919091529392505050565b5f5f5f5f5f5f5f5f610100898b031215610221575f5ffd5b88516001600160a01b0381168114610237575f5ffd5b60208a015160408b015160608c015160808d015160a08e015160c08f0151959d50939b509199509750955093506001600160401b03811115610277575f5ffd5b6102838b828c01610180565b60e08b015190935090506001600160401b038111156102a0575f5ffd5b6102ac8b828c01610180565b9150509295985092959890939650565b600181811c908216806102d057607f821691505b6020821081036102ee57634e487b7160e01b5f52602260045260245ffd5b50919050565b601f82111561033b57805f5260205f20601f840160051c810160208510156103195750805b601f840160051c820191505b81811015610338575f8155600101610325565b50505b505050565b81516001600160401b038111156103595761035961016c565b61036d8161036784546102bc565b846102f4565b6020601f82116001811461039f575f83156103885750848201515b5f19600385901b1c1916600184901b178455610338565b5f84815260208120601f198516915b828110156103ce57878501518255602094850194600190920191016103ae565b50848210156103eb57868401515f19600387901b60f8161c191681555b50505050600190811b01905550565b60805160a05160c05160e05161010051612eaf6104e65f395f61064001525f81816105cf01528181610af10152818161120701528181611a0e01528181611a420152611e4e01525f818161061101528181610ac201528181610b2401528181610ba301528181610e050152818161119501528181611282015261176701525f81816106b801528181610b45015281816112a3015261178801525f818161066f0152818161090a01528181610bef01528181610e56015281816112f60152818161147a01528181611535015281816117db015281816118e401528181611ba80152611d490152612eaf5ff3fe608060405234801561000f575f5ffd5b5060043610610367575f3560e01c8063624d7b72116101c957806398bdf6f5116100fe578063d7a7501a1161009e578063e7aa3afc11610079578063e7aa3afc14610757578063e985e9c514610787578063f2fde38b1461079a578063f3a504f2146107ad575f5ffd5b8063d7a7501a14610725578063ddd1b67e14610747578063e507a8a41461074f575f5ffd5b8063b88d4fde116100d9578063b88d4fde146106ed578063be040fb014610700578063c87b56dd14610708578063cb8c15171461071b575f5ffd5b806398bdf6f5146106aa578063a08f771a146106b3578063a22cb465146106da575f5ffd5b806378d8049a116101695780638adb0ec5116101445780638adb0ec5146106625780638d442f8a1461066a5780638da5cb5b1461069157806395d89b41146106a2575f5ffd5b806378d8049a1461060c5780638456cb591461063357806388791c0a1461063b575f5ffd5b80636a627842116101a45780636a627842146105b75780636f495605146105ca57806370a08231146105f1578063715018a614610604575f5ffd5b8063624d7b721461057c5780636352211e1461059b5780636999ac93146105ae575f5ffd5b806326d301881161029f57806342842e0e1161023f578063519dc8d21161021a578063519dc8d2146105565780635c975abb146105695780635db074d41461049a5780635f0f34af14610574575f5ffd5b806342842e0e1461052857806342b39b2f1461053b5780634f6ccce714610543575f5ffd5b80632f745c591161027a5780632f745c59146104e35780632f7c7beb146104f65780633f4ba83a146104fe578063412a294314610506575f5ffd5b806326d30188146104c55780632b503ce8146104cd5780632d7ecd11146104d6575f5ffd5b8063114455181161030a578063170fc4a9116102e5578063170fc4a91461049a578063171e1ec8146104a257806318160ddd146104aa57806323b872dd146104b2575f5ffd5b8063114455181461043d5780631411dab0146104725780631641499414610485575f5ffd5b8063081812fc11610345578063081812fc146103b2578063095ea7b3146103dd578063097cd9bf146103f05780630c3d5f6514610427575f5ffd5b806301ffc9a71461036b57806305fa7bcb1461039357806306fdde031461039d575b5f5ffd5b61037e610379366004612a2f565b6107bf565b60405190151581526020015b60405180910390f35b61039b6107cf565b005b6103a56109d9565b60405161038a9190612a78565b6103c56103c0366004612a8a565b610a68565b6040516001600160a01b03909116815260200161038a565b61039b6103eb366004612abc565b610a8f565b6103f8610a9e565b6040805196875260208701959095529385019290925260608401521515608083015260a082015260c00161038a565b61042f610b73565b60405190815260200161038a565b610445610b8a565b604080519687526020870195909552938501929092526060840152608083015260a082015260c00161038a565b61039b610480366004612a8a565b610c60565b61048d610d06565b60405161038a9190612ae4565b61042f610e02565b61042f610e3f565b60085461042f565b61039b6104c0366004612b26565b610ec7565b61037e610f50565b61042f60125481565b600f5461037e9060ff1681565b61042f6104f1366004612abc565b610f81565b61039b610fe4565b61039b611025565b61037e610514366004612a8a565b60116020525f908152604090205460ff1681565b61039b610536366004612b26565b611037565b61042f611056565b61042f610551366004612a8a565b611060565b61048d610564366004612b60565b6110b5565b600c5460ff1661037e565b61039b61114a565b61042f61058a366004612b60565b60106020525f908152604090205481565b6103c56105a9366004612a8a565b611189565b61042f600e5481565b61039b6105c5366004612b60565b611193565b61042f7f000000000000000000000000000000000000000000000000000000000000000081565b61042f6105ff366004612b60565b6113f5565b61039b61143a565b61042f7f000000000000000000000000000000000000000000000000000000000000000081565b61039b61144b565b61042f7f000000000000000000000000000000000000000000000000000000000000000081565b61039b61145b565b6103c57f000000000000000000000000000000000000000000000000000000000000000081565b600a546001600160a01b03166103c5565b6103a5611619565b61042f600d5481565b61042f7f000000000000000000000000000000000000000000000000000000000000000081565b61039b6106e8366004612b86565b611628565b61039b6106fb366004612bcf565b611633565b61039b61164b565b6103a5610716366004612a8a565b61199a565b61042f62034bc081565b61037e610733366004612a8a565b5f9081526011602052604090205460ff1690565b61042f611a0b565b61039b611a7c565b61075f611e17565b604080519485529215156020850152901515918301919091521515606082015260800161038a565b61037e610795366004612cac565b611e7b565b61039b6107a8366004612b60565b611ea8565b600f5461037e90610100900460ff1681565b5f6107c982611ee2565b92915050565b6107d7611f06565b5f6107e0611a0b565b90505f81116108305760405162461bcd60e51b8152602060048201526017602482015276141c9bda9958dd081b9bdd081cdd185c9d1959081e595d604a1b60448201526064015b60405180910390fd5b5f8181526011602052604090205460ff161561088e5760405162461bcd60e51b815260206004820152601960248201527f54686973206d6f6e746820616c72656164792066756e646564000000000000006044820152606401610827565b5f610897610e02565b90505f81116108e85760405162461bcd60e51b815260206004820152601c60248201527f4e6f207969656c642072657175697265642074686973206d6f6e7468000000006044820152606401610827565b6040516323b872dd60e01b8152336004820152306024820152604481018290527f00000000000000000000000000000000000000000000000000000000000000006001600160a01b0316906323b872dd906064016020604051808303815f875af1158015610958573d5f5f3e3d5ffd5b505050506040513d601f19601f8201168201806040525081019061097c9190612cdd565b505f8281526011602052604090819020805460ff19166001179055436012555182907f4e2010a5a9fbe978bef855590894b5883f9e9f9fd190a0905686a7310b129920906109cd9084815260200190565b60405180910390a25050565b60605f80546109e790612cf8565b80601f0160208091040260200160405190810160405280929190818152602001828054610a1390612cf8565b8015610a5e5780601f10610a3557610100808354040283529160200191610a5e565b820191905f5260205f20905b815481529060010190602001808311610a4157829003601f168201915b5050505050905090565b5f610a7282611f33565b505f828152600460205260409020546001600160a01b03166107c9565b610a9a828233611f6b565b5050565b5f5f5f5f5f5f610aad60085490565b95506001600d54610abe9190612d44565b94507f00000000000000000000000000000000000000000000000000000000000000009350610aed8585612d44565b92507f000000000000000000000000000000000000000000000000000000000000000043108015610b1d57508385105b9150610b697f00000000000000000000000000000000000000000000000000000000000000007f0000000000000000000000000000000000000000000000000000000000000000612d57565b9050909192939495565b5f62034bc0600e54610b859190612d76565b905090565b600e545f80808080610b9f62034bc087612d76565b94507f00000000000000000000000000000000000000000000000000000000000000009350610bcd60085490565b9250610bd7610e02565b6040516370a0823160e01b81523060048201529092507f00000000000000000000000000000000000000000000000000000000000000006001600160a01b0316906370a0823190602401602060405180830381865afa158015610c3c573d5f5f3e3d5ffd5b505050506040513d601f19601f82011682018060405250810190610b699190612d8d565b610c68611f06565b5f8111610cc15760405162461bcd60e51b815260206004820152602160248201527f5969656c642072617465206d7573742062652067726561746572207468616e206044820152600360fc1b6064820152608401610827565b600e80549082905560408051828152602081018490527f4959ad9023bf5b492922b51fbc7c0b5e5ec66aa39700e0da6d8af9b2d430898e910160405180910390a15050565b60605f610d11611a0b565b90505f60015b828111610d53575f8181526011602052604090205460ff16610d415781610d3d81612da4565b9250505b80610d4b81612da4565b915050610d17565b505f8167ffffffffffffffff811115610d6e57610d6e612bbb565b604051908082528060200260200182016040528015610d97578160200160208202803683370190505b5090505f60015b848111610df8575f8181526011602052604090205460ff16610de65780838381518110610dcd57610dcd612dbc565b602090810291909101015281610de281612da4565b9250505b80610df081612da4565b915050610d9e565b5090949350505050565b5f7f000000000000000000000000000000000000000000000000000000000000000062034bc0600e54610e359190612d76565b610b859190612d76565b6040516370a0823160e01b81523060048201525f907f00000000000000000000000000000000000000000000000000000000000000006001600160a01b0316906370a0823190602401602060405180830381865afa158015610ea3573d5f5f3e3d5ffd5b505050506040513d601f19601f82011682018060405250810190610b859190612d8d565b6001600160a01b038216610ef057604051633250574960e11b81525f6004820152602401610827565b5f610efc838333611f78565b9050836001600160a01b0316816001600160a01b031614610f4a576040516364283d7b60e01b81526001600160a01b0380861660048301526024820184905282166044820152606401610827565b50505050565b5f5f610f5a611a0b565b9050805f03610f6b57600191505090565b5f9081526011602052604090205460ff16919050565b5f610f8b836113f5565b8210610fbc5760405163295f44f760e21b81526001600160a01b038416600482015260248101839052604401610827565b506001600160a01b03919091165f908152600660209081526040808320938352929052205490565b610fec611f06565b600f805461ff0019166101001790556040517fe9b15236f439dcead4cb64704686640111302b4a62a5cbbdb0bd7ebaf687d1ea905f90a1565b61102d611f06565b611035611f8c565b565b61105183838360405180602001604052805f815250611633565b505050565b5f610b8560085490565b5f61106a60085490565b82106110925760405163295f44f760e21b81525f600482015260248101839052604401610827565b600882815481106110a5576110a5612dbc565b905f5260205f2001549050919050565b60605f6110c1836113f5565b90505f8167ffffffffffffffff8111156110dd576110dd612bbb565b604051908082528060200260200182016040528015611106578160200160208202803683370190505b5090505f5b828110156111425761111d8582610f81565b82828151811061112f5761112f612dbc565b602090810291909101015260010161110b565b509392505050565b611152611f06565b600f805460ff191660011790556040517fe22fe3f5d6f7795ba37856bc3be28cbdd1ffd74fef9eeec56d2d55de3c7ded80905f90a1565b5f6107c982611f33565b7f0000000000000000000000000000000000000000000000000000000000000000600d5411156112055760405162461bcd60e51b815260206004820152601b60248201527f416c6c20746f6b656e732068617665206265656e206d696e74656400000000006044820152606401610827565b7f000000000000000000000000000000000000000000000000000000000000000043106112745760405162461bcd60e51b815260206004820152601860248201527f4d696e74696e6720706572696f642068617320656e64656400000000000000006044820152606401610827565b61127c611fde565b5f6112c77f00000000000000000000000000000000000000000000000000000000000000007f0000000000000000000000000000000000000000000000000000000000000000612d57565b6040516323b872dd60e01b81526001600160a01b038481166004830152306024830152604482018390529192507f0000000000000000000000000000000000000000000000000000000000000000909116906323b872dd906064016020604051808303815f875af115801561133e573d5f5f3e3d5ffd5b505050506040513d601f19601f820116820180604052508101906113629190612cdd565b5061136f82600d54612008565b6001600160a01b0382165f908152601060205260408120439055600d80549161139783612da4565b9190505550816001600160a01b03167f30385c845b448a36257a6a1716e6ad2e1bc2cbe333cde1e69fe849ad6511adfe6001600d546113d69190612d44565b60405190815260200160405180910390a2506113f26001600b55565b50565b5f6001600160a01b03821661141f576040516322718ad960e21b81525f6004820152602401610827565b506001600160a01b03165f9081526003602052604090205490565b611442611f06565b6110355f612021565b611453611f06565b611035612072565b611463611f06565b6040516370a0823160e01b81523060048201525f907f00000000000000000000000000000000000000000000000000000000000000006001600160a01b0316906370a0823190602401602060405180830381865afa1580156114c7573d5f5f3e3d5ffd5b505050506040513d601f19601f820116820180604052508101906114eb9190612d8d565b90505f81116115335760405162461bcd60e51b81526020600482015260146024820152734e6f207969656c6420746f20776974686472617760601b6044820152606401610827565b7f00000000000000000000000000000000000000000000000000000000000000006001600160a01b031663a9059cbb611574600a546001600160a01b031690565b6040516001600160e01b031960e084901b1681526001600160a01b039091166004820152602481018490526044016020604051808303815f875af11580156115be573d5f5f3e3d5ffd5b505050506040513d601f19601f820116820180604052508101906115e29190612cdd565b506040518181527f0593b6478e75febc801592f0b8e23cdd636359ed892d442cdd594924b48149719060200160405180910390a150565b6060600180546109e790612cf8565b610a9a3383836120af565b61163e848484610ec7565b610f4a338585858561214d565b611653611fde565b600f5460ff1615156001146116aa5760405162461bcd60e51b815260206004820152601a60248201527f526564656d7074696f6e206e6f7420616c6c6f776564207965740000000000006044820152606401610827565b600f5460ff6101009091041615156001146117075760405162461bcd60e51b815260206004820152601760248201527f436f6e7472616374206e6f742066756e646564207965740000000000000000006044820152606401610827565b335f611712826113f5565b116117555760405162461bcd60e51b81526020600482015260136024820152724e6f20746f6b656e7320746f2072656465656d60681b6044820152606401610827565b5f61175f336113f5565b90505f6117ac7f00000000000000000000000000000000000000000000000000000000000000007f0000000000000000000000000000000000000000000000000000000000000000612d57565b90505f6117b98383612d76565b6040516370a0823160e01b815230600482015290915081906001600160a01b037f000000000000000000000000000000000000000000000000000000000000000016906370a0823190602401602060405180830381865afa158015611820573d5f5f3e3d5ffd5b505050506040513d601f19601f820116820180604052508101906118449190612d8d565b101561189c5760405162461bcd60e51b815260206004820152602160248201527f496e73756666696369656e742066756e647320666f7220726564656d7074696f6044820152603760f91b6064820152608401610827565b5f6118a6336113f5565b11156118c8575f6118b7335f610f81565b90506118c281612275565b5061189c565b60405163a9059cbb60e01b8152336004820152602481018290527f00000000000000000000000000000000000000000000000000000000000000006001600160a01b03169063a9059cbb906044016020604051808303815f875af1158015611932573d5f5f3e3d5ffd5b505050506040513d601f19601f820116820180604052508101906119569190612cdd565b5060405181815233907f4896181ff8f4543cc00db9fe9b6fb7e6f032b7eb772c72ab1ec1b4d2e03b93699060200160405180910390a2505050506110356001600b55565b60606119a582611f33565b505f6119bb60408051602081019091525f815290565b90505f8151116119d95760405180602001604052805f815250611a04565b806119e3846122ad565b6040516020016119f4929190612de7565b6040516020818303038152906040525b9392505050565b5f7f0000000000000000000000000000000000000000000000000000000000000000431015611a3957505f90565b62034bc0611a677f000000000000000000000000000000000000000000000000000000000000000043612d44565b611a719190612d57565b610b85906001612dfb565b611a84611fde565b5f611a8d611a0b565b90505f8111611ad85760405162461bcd60e51b8152602060048201526017602482015276141c9bda9958dd081b9bdd081cdd185c9d1959081e595d604a1b6044820152606401610827565b5f8181526011602052604090205460ff16611b435760405162461bcd60e51b815260206004820152602560248201527f43757272656e74206d6f6e7468206e6f742066756e64656420627920746f6b656044820152643734bd32b960d91b6064820152608401610827565b5f611b4d336113f5565b335f9081526010602052604081205491925090611b6a9043612d44565b90505f8282600e54611b7c9190612d76565b611b869190612d76565b6040516370a0823160e01b815230600482015290915081906001600160a01b037f000000000000000000000000000000000000000000000000000000000000000016906370a0823190602401602060405180830381865afa158015611bed573d5f5f3e3d5ffd5b505050506040513d601f19601f82011682018060405250810190611c119190612d8d565b1015611c5f5760405162461bcd60e51b815260206004820152601a60248201527f496e73756666696369656e74207969656c642062616c616e63650000000000006044820152606401610827565b5f611c69336113f5565b11611ca85760405162461bcd60e51b815260206004820152600f60248201526e139bc81d1bdad95b9cc81bdddb9959608a1b6044820152606401610827565b335f90815260106020526040812054611cc19043612d44565b90505f611ccd336113f5565b82600e54611cdb9190612d76565b611ce59190612d76565b90505f8111611d2d5760405162461bcd60e51b81526020600482015260146024820152734e6f207969656c6420746f20776974686472617760601b6044820152606401610827565b60405163a9059cbb60e01b8152336004820152602481018290527f00000000000000000000000000000000000000000000000000000000000000006001600160a01b03169063a9059cbb906044016020604051808303815f875af1158015611d97573d5f5f3e3d5ffd5b505050506040513d601f19601f82011682018060405250810190611dbb9190612cdd565b50335f8181526010602052604090819020439055517faed495d70193dd915b96156dc90595c95aa5cc4f6985a2cd79286232d96ae8e290611dff9084815260200190565b60405180910390a25050505050506110356001600b55565b5f5f5f5f611e23611a0b565b93505f8411611e33576001611e45565b5f8481526011602052604090205460ff165b600f54949590947f0000000000000000000000000000000000000000000000000000000000000000431015945060ff1692509050565b6001600160a01b039182165f90815260056020908152604080832093909416825291909152205460ff1690565b611eb0611f06565b6001600160a01b038116611ed957604051631e4fbdf760e01b81525f6004820152602401610827565b6113f281612021565b5f6001600160e01b0319821663780e9d6360e01b14806107c957506107c98261233d565b600a546001600160a01b031633146110355760405163118cdaa760e01b8152336004820152602401610827565b5f818152600260205260408120546001600160a01b0316806107c957604051637e27328960e01b815260048101849052602401610827565b611051838383600161238c565b5f611f84848484612490565b949350505050565b611f9461255b565b600c805460ff191690557f5db9ee0a495bf2e6ff9c91a7834c1ba4fdd244a5e8aa4e537bd38aeae4b073aa335b6040516001600160a01b03909116815260200160405180910390a1565b6002600b540361200157604051633ee5aeb560e01b815260040160405180910390fd5b6002600b55565b610a9a828260405180602001604052805f81525061257e565b600a80546001600160a01b038381166001600160a01b0319831681179093556040519116919082907f8be0079c531659141344cd1fd0a4f28419497f9722a3daafe3b4186f6b6457e0905f90a35050565b61207a612595565b600c805460ff191660011790557f62e78cea01bee320cd4e420270b5ea74000d11b0c9f74754ebdbfc544b05a258611fc13390565b6001600160a01b0382166120e157604051630b61174360e31b81526001600160a01b0383166004820152602401610827565b6001600160a01b038381165f81815260056020908152604080832094871680845294825291829020805460ff191686151590811790915591519182527f17307eab39ab6107e8899845ad3d59bd9653f200f220920489ca2b5937696c31910160405180910390a3505050565b6001600160a01b0383163b1561226e57604051630a85bd0160e11b81526001600160a01b0384169063150b7a029061218f908890889087908790600401612e0e565b6020604051808303815f875af19250505080156121c9575060408051601f3d908101601f191682019092526121c691810190612e4a565b60015b612230573d8080156121f6576040519150601f19603f3d011682016040523d82523d5f602084013e6121fb565b606091505b5080515f0361222857604051633250574960e11b81526001600160a01b0385166004820152602401610827565b805160208201fd5b6001600160e01b03198116630a85bd0160e11b1461226c57604051633250574960e11b81526001600160a01b0385166004820152602401610827565b505b5050505050565b5f6122815f835f611f78565b90506001600160a01b038116610a9a57604051637e27328960e01b815260048101839052602401610827565b60605f6122b9836125b9565b60010190505f8167ffffffffffffffff8111156122d8576122d8612bbb565b6040519080825280601f01601f191660200182016040528015612302576020820181803683370190505b5090508181016020015b5f19016f181899199a1a9b1b9c1cb0b131b232b360811b600a86061a8153600a850494508461230c57509392505050565b5f6001600160e01b031982166380ac58cd60e01b148061236d57506001600160e01b03198216635b5e139f60e01b145b806107c957506301ffc9a760e01b6001600160e01b03198316146107c9565b80806123a057506001600160a01b03821615155b15612461575f6123af84611f33565b90506001600160a01b038316158015906123db5750826001600160a01b0316816001600160a01b031614155b80156123ee57506123ec8184611e7b565b155b156124175760405163a9fbf51f60e01b81526001600160a01b0384166004820152602401610827565b811561245f5783856001600160a01b0316826001600160a01b03167f8c5be1e5ebec7d5bd14f71427d1e84f3dd0314c0f7b2291e5b200ac8c7c3b92560405160405180910390a45b505b50505f90815260046020526040902080546001600160a01b0319166001600160a01b0392909216919091179055565b5f5f61249d858585612690565b90506001600160a01b0381166124f9576124f484600880545f838152600960205260408120829055600182018355919091527ff3f7a9fe364faab93b216da50a3214154f22a0a2b415b23a84c8169e8b636ee30155565b61251c565b846001600160a01b0316816001600160a01b03161461251c5761251c8185612782565b6001600160a01b03851661253857612533846127ff565b611f84565b846001600160a01b0316816001600160a01b031614611f8457611f8485856128a6565b600c5460ff1661103557604051638dfc202b60e01b815260040160405180910390fd5b61258883836128f4565b611051335f85858561214d565b600c5460ff16156110355760405163d93c066560e01b815260040160405180910390fd5b5f8072184f03e93ff9f4daa797ed6e38ed64bf6a1f0160401b83106125f75772184f03e93ff9f4daa797ed6e38ed64bf6a1f0160401b830492506040015b6d04ee2d6d415b85acef81000000008310612623576d04ee2d6d415b85acef8100000000830492506020015b662386f26fc10000831061264157662386f26fc10000830492506010015b6305f5e1008310612659576305f5e100830492506008015b612710831061266d57612710830492506004015b6064831061267f576064830492506002015b600a83106107c95760010192915050565b5f828152600260205260408120546001600160a01b03908116908316156126bc576126bc818486612955565b6001600160a01b038116156126f6576126d75f855f5f61238c565b6001600160a01b0381165f90815260036020526040902080545f190190555b6001600160a01b03851615612724576001600160a01b0385165f908152600360205260409020805460010190555b5f8481526002602052604080822080546001600160a01b0319166001600160a01b0389811691821790925591518793918516917fddf252ad1be2c89b69c2b068fc378daa952ba7f163c4a11628f55a4df523b3ef91a4949350505050565b5f61278c836113f5565b5f838152600760209081526040808320546001600160a01b03881684526006909252909120919250908183146127e1575f83815260208281526040808320548584528184208190558352600790915290208290555b5f938452600760209081526040808620869055938552525081205550565b6008545f9061281090600190612d44565b5f838152600960205260408120546008805493945090928490811061283757612837612dbc565b905f5260205f2001549050806008838154811061285657612856612dbc565b5f91825260208083209091019290925582815260099091526040808220849055858252812055600880548061288d5761288d612e65565b600190038181905f5260205f20015f9055905550505050565b5f60016128b2846113f5565b6128bc9190612d44565b6001600160a01b039093165f908152600660209081526040808320868452825280832085905593825260079052919091209190915550565b6001600160a01b03821661291d57604051633250574960e11b81525f6004820152602401610827565b5f61292983835f611f78565b90506001600160a01b03811615611051576040516339e3563760e11b81525f6004820152602401610827565b6129608383836129b9565b611051576001600160a01b03831661298e57604051637e27328960e01b815260048101829052602401610827565b60405163177e802f60e01b81526001600160a01b038316600482015260248101829052604401610827565b5f6001600160a01b03831615801590611f845750826001600160a01b0316846001600160a01b031614806129f257506129f28484611e7b565b80611f845750505f908152600460205260409020546001600160a01b03908116911614919050565b6001600160e01b0319811681146113f2575f5ffd5b5f60208284031215612a3f575f5ffd5b8135611a0481612a1a565b5f81518084528060208401602086015e5f602082860101526020601f19601f83011685010191505092915050565b602081525f611a046020830184612a4a565b5f60208284031215612a9a575f5ffd5b5035919050565b80356001600160a01b0381168114612ab7575f5ffd5b919050565b5f5f60408385031215612acd575f5ffd5b612ad683612aa1565b946020939093013593505050565b602080825282518282018190525f918401906040840190835b81811015612b1b578351835260209384019390920191600101612afd565b509095945050505050565b5f5f5f60608486031215612b38575f5ffd5b612b4184612aa1565b9250612b4f60208501612aa1565b929592945050506040919091013590565b5f60208284031215612b70575f5ffd5b611a0482612aa1565b80151581146113f2575f5ffd5b5f5f60408385031215612b97575f5ffd5b612ba083612aa1565b91506020830135612bb081612b79565b809150509250929050565b634e487b7160e01b5f52604160045260245ffd5b5f5f5f5f60808587031215612be2575f5ffd5b612beb85612aa1565b9350612bf960208601612aa1565b925060408501359150606085013567ffffffffffffffff811115612c1b575f5ffd5b8501601f81018713612c2b575f5ffd5b803567ffffffffffffffff811115612c4557612c45612bbb565b604051601f8201601f19908116603f0116810167ffffffffffffffff81118282101715612c7457612c74612bbb565b604052818152828201602001891015612c8b575f5ffd5b816020840160208301375f6020838301015280935050505092959194509250565b5f5f60408385031215612cbd575f5ffd5b612cc683612aa1565b9150612cd460208401612aa1565b90509250929050565b5f60208284031215612ced575f5ffd5b8151611a0481612b79565b600181811c90821680612d0c57607f821691505b602082108103612d2a57634e487b7160e01b5f52602260045260245ffd5b50919050565b634e487b7160e01b5f52601160045260245ffd5b818103818111156107c9576107c9612d30565b5f82612d7157634e487b7160e01b5f52601260045260245ffd5b500490565b80820281158282048414176107c9576107c9612d30565b5f60208284031215612d9d575f5ffd5b5051919050565b5f60018201612db557612db5612d30565b5060010190565b634e487b7160e01b5f52603260045260245ffd5b5f81518060208401855e5f93019283525090919050565b5f611f84612df58386612dd0565b84612dd0565b808201808211156107c9576107c9612d30565b6001600160a01b03858116825284166020820152604081018390526080606082018190525f90612e4090830184612a4a565b9695505050505050565b5f60208284031215612e5a575f5ffd5b8151611a0481612a1a565b634e487b7160e01b5f52603160045260245ffdfea2646970667358221220123cc1327c7e6818c9989f5603fe41f3ef8893e6dd0cdef72ecbbe6520c74e9864736f6c634300081c0033",
        "linkReferences": {}
    },
    "methodIdentifiers": {
        "MONTH_IN_BLOCKS()": "cb8c1517",
        "approve(address,uint256)": "095ea7b3",
        "balanceOf(address)": "70a08231",
        "calculateRequiredMonthlyYield()": "5db074d4",
        "depositMonthlyYield()": "05fa7bcb",
        "emergencyRedemption()": "5f0f34af",
        "emergencyWithdrawUnclaimedYield()": "8adb0ec5",
        "funded()": "f3a504f2",
        "getApproved(uint256)": "081812fc",
        "getCurrentHolders()": "42b39b2f",
        "getCurrentMonth()": "ddd1b67e",
        "getCurrentReserved()": "171e1ec8",
        "getMonthlyYieldLiability()": "170fc4a9",
        "getProjectStatus()": "e7aa3afc",
        "getTokenStats()": "097cd9bf",
        "getUnfundedMonths()": "16414994",
        "getUserTokens(address)": "519dc8d2",
        "getYieldEconomics()": "11445518",
        "getYieldPerTokenPerMonth()": "0c3d5f65",
        "i_initialValue()": "a08f771a",
        "i_landType()": "88791c0a",
        "i_startDate()": "6f495605",
        "i_totalSupply()": "78d8049a",
        "isApprovedForAll(address,address)": "e985e9c5",
        "isCurrentMonthFunded()": "26d30188",
        "isMonthFunded(uint256)": "d7a7501a",
        "lastWithdraw(address)": "624d7b72",
        "lastYieldDeposit()": "2b503ce8",
        "mint(address)": "6a627842",
        "monthlyDepositsComplete(uint256)": "412a2943",
        "name()": "06fdde03",
        "owner()": "8da5cb5b",
        "ownerOf(uint256)": "6352211e",
        "pause()": "8456cb59",
        "paused()": "5c975abb",
        "paymentStableToken()": "8d442f8a",
        "redeem()": "be040fb0",
        "redeemable()": "2d7ecd11",
        "renounceOwnership()": "715018a6",
        "safeTransferFrom(address,address,uint256)": "42842e0e",
        "safeTransferFrom(address,address,uint256,bytes)": "b88d4fde",
        "setApprovalForAll(address,bool)": "a22cb465",
        "setYieldRate(uint256)": "1411dab0",
        "supportsInterface(bytes4)": "01ffc9a7",
        "symbol()": "95d89b41",
        "tokenByIndex(uint256)": "4f6ccce7",
        "tokenIdCounter()": "98bdf6f5",
        "tokenOfOwnerByIndex(address,uint256)": "2f745c59",
        "tokenURI(uint256)": "c87b56dd",
        "totalSupply()": "18160ddd",
        "transferFrom(address,address,uint256)": "23b872dd",
        "transferOwnership(address)": "f2fde38b",
        "unpause()": "3f4ba83a",
        "validateFundingForRedemption()": "2f7c7beb",
        "withdrawYield()": "e507a8a4",
        "yieldRate()": "6999ac93"
    },
    "id": 41
}