{
    "abi": [
        {
            "type": "constructor",
            "inputs": [
                {
                    "name": "_name",
                    "type": "string",
                    "internalType": "string"
                },
                {
                    "name": "_symbol",
                    "type": "string",
                    "internalType": "string"
                },
                {
                    "name": "_propertyOwner",
                    "type": "address",
                    "internalType": "address"
                },
                {
                    "name": "_usdtToken",
                    "type": "address",
                    "internalType": "address"
                },
                {
                    "name": "_factory",
                    "type": "address",
                    "internalType": "address"
                },
                {
                    "name": "_totalValue",
                    "type": "uint256",
                    "internalType": "uint256"
                },
                {
                    "name": "_totalShares",
                    "type": "uint256",
                    "internalType": "uint256"
                },
                {
                    "name": "_yieldPerBlock",
                    "type": "uint256",
                    "internalType": "uint256"
                },
                {
                    "name": "_yieldReserve",
                    "type": "uint256",
                    "internalType": "uint256"
                },
                {
                    "name": "_propertyType",
                    "type": "uint256",
                    "internalType": "uint256"
                }
            ],
            "stateMutability": "nonpayable"
        },
        {
            "type": "function",
            "name": "BLOCKS_PER_MONTH",
            "inputs": [],
            "outputs": [
                {
                    "name": "",
                    "type": "uint256",
                    "internalType": "uint256"
                }
            ],
            "stateMutability": "view"
        },
        {
            "type": "function",
            "name": "MIN_YIELD_RESERVE_RATIO",
            "inputs": [],
            "outputs": [
                {
                    "name": "",
                    "type": "uint256",
                    "internalType": "uint256"
                }
            ],
            "stateMutability": "view"
        },
        {
            "type": "function",
            "name": "PRECISION",
            "inputs": [],
            "outputs": [
                {
                    "name": "",
                    "type": "uint256",
                    "internalType": "uint256"
                }
            ],
            "stateMutability": "view"
        },
        {
            "type": "function",
            "name": "activateProperty",
            "inputs": [],
            "outputs": [],
            "stateMutability": "nonpayable"
        },
        {
            "type": "function",
            "name": "approve",
            "inputs": [
                {
                    "name": "to",
                    "type": "address",
                    "internalType": "address"
                },
                {
                    "name": "tokenId",
                    "type": "uint256",
                    "internalType": "uint256"
                }
            ],
            "outputs": [],
            "stateMutability": "nonpayable"
        },
        {
            "type": "function",
            "name": "balanceOf",
            "inputs": [
                {
                    "name": "owner",
                    "type": "address",
                    "internalType": "address"
                }
            ],
            "outputs": [
                {
                    "name": "",
                    "type": "uint256",
                    "internalType": "uint256"
                }
            ],
            "stateMutability": "view"
        },
        {
            "type": "function",
            "name": "calculateClaimableYield",
            "inputs": [
                {
                    "name": "tokenId",
                    "type": "uint256",
                    "internalType": "uint256"
                }
            ],
            "outputs": [
                {
                    "name": "",
                    "type": "uint256",
                    "internalType": "uint256"
                }
            ],
            "stateMutability": "view"
        },
        {
            "type": "function",
            "name": "claimYield",
            "inputs": [
                {
                    "name": "tokenId",
                    "type": "uint256",
                    "internalType": "uint256"
                }
            ],
            "outputs": [],
            "stateMutability": "nonpayable"
        },
        {
            "type": "function",
            "name": "depositYieldReserve",
            "inputs": [
                {
                    "name": "amount",
                    "type": "uint256",
                    "internalType": "uint256"
                }
            ],
            "outputs": [],
            "stateMutability": "nonpayable"
        },
        {
            "type": "function",
            "name": "emergencyPause",
            "inputs": [],
            "outputs": [],
            "stateMutability": "nonpayable"
        },
        {
            "type": "function",
            "name": "factory",
            "inputs": [],
            "outputs": [
                {
                    "name": "",
                    "type": "address",
                    "internalType": "address"
                }
            ],
            "stateMutability": "view"
        },
        {
            "type": "function",
            "name": "getApproved",
            "inputs": [
                {
                    "name": "tokenId",
                    "type": "uint256",
                    "internalType": "uint256"
                }
            ],
            "outputs": [
                {
                    "name": "",
                    "type": "address",
                    "internalType": "address"
                }
            ],
            "stateMutability": "view"
        },
        {
            "type": "function",
            "name": "getProperty",
            "inputs": [],
            "outputs": [
                {
                    "name": "",
                    "type": "tuple",
                    "internalType": "struct Land.Property",
                    "components": [
                        {
                            "name": "totalValue",
                            "type": "uint256",
                            "internalType": "uint256"
                        },
                        {
                            "name": "totalShares",
                            "type": "uint256",
                            "internalType": "uint256"
                        },
                        {
                            "name": "availableShares",
                            "type": "uint256",
                            "internalType": "uint256"
                        },
                        {
                            "name": "yieldPerBlock",
                            "type": "uint256",
                            "internalType": "uint256"
                        },
                        {
                            "name": "isActive",
                            "type": "bool",
                            "internalType": "bool"
                        },
                        {
                            "name": "propertyOwner",
                            "type": "address",
                            "internalType": "address"
                        },
                        {
                            "name": "yieldReserve",
                            "type": "uint256",
                            "internalType": "uint256"
                        },
                        {
                            "name": "propertyType",
                            "type": "uint256",
                            "internalType": "uint256"
                        }
                    ]
                }
            ],
            "stateMutability": "view"
        },
        {
            "type": "function",
            "name": "getShare",
            "inputs": [
                {
                    "name": "tokenId",
                    "type": "uint256",
                    "internalType": "uint256"
                }
            ],
            "outputs": [
                {
                    "name": "",
                    "type": "tuple",
                    "internalType": "struct Land.Share",
                    "components": [
                        {
                            "name": "percentage",
                            "type": "uint256",
                            "internalType": "uint256"
                        },
                        {
                            "name": "purchasePrice",
                            "type": "uint256",
                            "internalType": "uint256"
                        },
                        {
                            "name": "purchaseDate",
                            "type": "uint256",
                            "internalType": "uint256"
                        }
                    ]
                }
            ],
            "stateMutability": "view"
        },
        {
            "type": "function",
            "name": "getTokensByOwner",
            "inputs": [
                {
                    "name": "owner",
                    "type": "address",
                    "internalType": "address"
                }
            ],
            "outputs": [
                {
                    "name": "",
                    "type": "uint256[]",
                    "internalType": "uint256[]"
                }
            ],
            "stateMutability": "view"
        },
        {
            "type": "function",
            "name": "getYieldInfo",
            "inputs": [
                {
                    "name": "tokenId",
                    "type": "uint256",
                    "internalType": "uint256"
                }
            ],
            "outputs": [
                {
                    "name": "yieldPerBlock",
                    "type": "uint256",
                    "internalType": "uint256"
                },
                {
                    "name": "yieldPerDay",
                    "type": "uint256",
                    "internalType": "uint256"
                },
                {
                    "name": "yieldPerMonth",
                    "type": "uint256",
                    "internalType": "uint256"
                },
                {
                    "name": "blocksSinceLastClaim",
                    "type": "uint256",
                    "internalType": "uint256"
                },
                {
                    "name": "claimableNow",
                    "type": "uint256",
                    "internalType": "uint256"
                }
            ],
            "stateMutability": "view"
        },
        {
            "type": "function",
            "name": "getYieldReserveStatus",
            "inputs": [],
            "outputs": [
                {
                    "name": "currentReserve",
                    "type": "uint256",
                    "internalType": "uint256"
                },
                {
                    "name": "monthsRemaining",
                    "type": "uint256",
                    "internalType": "uint256"
                },
                {
                    "name": "isLow",
                    "type": "bool",
                    "internalType": "bool"
                }
            ],
            "stateMutability": "view"
        },
        {
            "type": "function",
            "name": "isApprovedForAll",
            "inputs": [
                {
                    "name": "owner",
                    "type": "address",
                    "internalType": "address"
                },
                {
                    "name": "operator",
                    "type": "address",
                    "internalType": "address"
                }
            ],
            "outputs": [
                {
                    "name": "",
                    "type": "bool",
                    "internalType": "bool"
                }
            ],
            "stateMutability": "view"
        },
        {
            "type": "function",
            "name": "lastClaimedYield",
            "inputs": [
                {
                    "name": "",
                    "type": "uint256",
                    "internalType": "uint256"
                }
            ],
            "outputs": [
                {
                    "name": "",
                    "type": "uint256",
                    "internalType": "uint256"
                }
            ],
            "stateMutability": "view"
        },
        {
            "type": "function",
            "name": "name",
            "inputs": [],
            "outputs": [
                {
                    "name": "",
                    "type": "string",
                    "internalType": "string"
                }
            ],
            "stateMutability": "view"
        },
        {
            "type": "function",
            "name": "owner",
            "inputs": [],
            "outputs": [
                {
                    "name": "",
                    "type": "address",
                    "internalType": "address"
                }
            ],
            "stateMutability": "view"
        },
        {
            "type": "function",
            "name": "ownerOf",
            "inputs": [
                {
                    "name": "tokenId",
                    "type": "uint256",
                    "internalType": "uint256"
                }
            ],
            "outputs": [
                {
                    "name": "",
                    "type": "address",
                    "internalType": "address"
                }
            ],
            "stateMutability": "view"
        },
        {
            "type": "function",
            "name": "paused",
            "inputs": [],
            "outputs": [
                {
                    "name": "",
                    "type": "bool",
                    "internalType": "bool"
                }
            ],
            "stateMutability": "view"
        },
        {
            "type": "function",
            "name": "property",
            "inputs": [],
            "outputs": [
                {
                    "name": "totalValue",
                    "type": "uint256",
                    "internalType": "uint256"
                },
                {
                    "name": "totalShares",
                    "type": "uint256",
                    "internalType": "uint256"
                },
                {
                    "name": "availableShares",
                    "type": "uint256",
                    "internalType": "uint256"
                },
                {
                    "name": "yieldPerBlock",
                    "type": "uint256",
                    "internalType": "uint256"
                },
                {
                    "name": "isActive",
                    "type": "bool",
                    "internalType": "bool"
                },
                {
                    "name": "propertyOwner",
                    "type": "address",
                    "internalType": "address"
                },
                {
                    "name": "yieldReserve",
                    "type": "uint256",
                    "internalType": "uint256"
                },
                {
                    "name": "propertyType",
                    "type": "uint256",
                    "internalType": "uint256"
                }
            ],
            "stateMutability": "view"
        },
        {
            "type": "function",
            "name": "purchaseShares",
            "inputs": [
                {
                    "name": "shareAmount",
                    "type": "uint256",
                    "internalType": "uint256"
                }
            ],
            "outputs": [],
            "stateMutability": "nonpayable"
        },
        {
            "type": "function",
            "name": "renounceOwnership",
            "inputs": [],
            "outputs": [],
            "stateMutability": "nonpayable"
        },
        {
            "type": "function",
            "name": "safeTransferFrom",
            "inputs": [
                {
                    "name": "from",
                    "type": "address",
                    "internalType": "address"
                },
                {
                    "name": "to",
                    "type": "address",
                    "internalType": "address"
                },
                {
                    "name": "tokenId",
                    "type": "uint256",
                    "internalType": "uint256"
                }
            ],
            "outputs": [],
            "stateMutability": "nonpayable"
        },
        {
            "type": "function",
            "name": "safeTransferFrom",
            "inputs": [
                {
                    "name": "from",
                    "type": "address",
                    "internalType": "address"
                },
                {
                    "name": "to",
                    "type": "address",
                    "internalType": "address"
                },
                {
                    "name": "tokenId",
                    "type": "uint256",
                    "internalType": "uint256"
                },
                {
                    "name": "data",
                    "type": "bytes",
                    "internalType": "bytes"
                }
            ],
            "outputs": [],
            "stateMutability": "nonpayable"
        },
        {
            "type": "function",
            "name": "setApprovalForAll",
            "inputs": [
                {
                    "name": "operator",
                    "type": "address",
                    "internalType": "address"
                },
                {
                    "name": "approved",
                    "type": "bool",
                    "internalType": "bool"
                }
            ],
            "outputs": [],
            "stateMutability": "nonpayable"
        },
        {
            "type": "function",
            "name": "shares",
            "inputs": [
                {
                    "name": "",
                    "type": "uint256",
                    "internalType": "uint256"
                }
            ],
            "outputs": [
                {
                    "name": "percentage",
                    "type": "uint256",
                    "internalType": "uint256"
                },
                {
                    "name": "purchasePrice",
                    "type": "uint256",
                    "internalType": "uint256"
                },
                {
                    "name": "purchaseDate",
                    "type": "uint256",
                    "internalType": "uint256"
                }
            ],
            "stateMutability": "view"
        },
        {
            "type": "function",
            "name": "supportsInterface",
            "inputs": [
                {
                    "name": "interfaceId",
                    "type": "bytes4",
                    "internalType": "bytes4"
                }
            ],
            "outputs": [
                {
                    "name": "",
                    "type": "bool",
                    "internalType": "bool"
                }
            ],
            "stateMutability": "view"
        },
        {
            "type": "function",
            "name": "symbol",
            "inputs": [],
            "outputs": [
                {
                    "name": "",
                    "type": "string",
                    "internalType": "string"
                }
            ],
            "stateMutability": "view"
        },
        {
            "type": "function",
            "name": "tokenURI",
            "inputs": [
                {
                    "name": "tokenId",
                    "type": "uint256",
                    "internalType": "uint256"
                }
            ],
            "outputs": [
                {
                    "name": "",
                    "type": "string",
                    "internalType": "string"
                }
            ],
            "stateMutability": "view"
        },
        {
            "type": "function",
            "name": "transferFrom",
            "inputs": [
                {
                    "name": "from",
                    "type": "address",
                    "internalType": "address"
                },
                {
                    "name": "to",
                    "type": "address",
                    "internalType": "address"
                },
                {
                    "name": "tokenId",
                    "type": "uint256",
                    "internalType": "uint256"
                }
            ],
            "outputs": [],
            "stateMutability": "nonpayable"
        },
        {
            "type": "function",
            "name": "transferOwnership",
            "inputs": [
                {
                    "name": "newOwner",
                    "type": "address",
                    "internalType": "address"
                }
            ],
            "outputs": [],
            "stateMutability": "nonpayable"
        },
        {
            "type": "function",
            "name": "unpause",
            "inputs": [],
            "outputs": [],
            "stateMutability": "nonpayable"
        },
        {
            "type": "function",
            "name": "usdtToken",
            "inputs": [],
            "outputs": [
                {
                    "name": "",
                    "type": "address",
                    "internalType": "contract IERC20"
                }
            ],
            "stateMutability": "view"
        },
        {
            "type": "event",
            "name": "Approval",
            "inputs": [
                {
                    "name": "owner",
                    "type": "address",
                    "indexed": true,
                    "internalType": "address"
                },
                {
                    "name": "approved",
                    "type": "address",
                    "indexed": true,
                    "internalType": "address"
                },
                {
                    "name": "tokenId",
                    "type": "uint256",
                    "indexed": true,
                    "internalType": "uint256"
                }
            ],
            "anonymous": false
        },
        {
            "type": "event",
            "name": "ApprovalForAll",
            "inputs": [
                {
                    "name": "owner",
                    "type": "address",
                    "indexed": true,
                    "internalType": "address"
                },
                {
                    "name": "operator",
                    "type": "address",
                    "indexed": true,
                    "internalType": "address"
                },
                {
                    "name": "approved",
                    "type": "bool",
                    "indexed": false,
                    "internalType": "bool"
                }
            ],
            "anonymous": false
        },
        {
            "type": "event",
            "name": "EmergencyPaused",
            "inputs": [],
            "anonymous": false
        },
        {
            "type": "event",
            "name": "EmergencyUnpaused",
            "inputs": [],
            "anonymous": false
        },
        {
            "type": "event",
            "name": "OwnershipTransferred",
            "inputs": [
                {
                    "name": "previousOwner",
                    "type": "address",
                    "indexed": true,
                    "internalType": "address"
                },
                {
                    "name": "newOwner",
                    "type": "address",
                    "indexed": true,
                    "internalType": "address"
                }
            ],
            "anonymous": false
        },
        {
            "type": "event",
            "name": "Paused",
            "inputs": [
                {
                    "name": "account",
                    "type": "address",
                    "indexed": false,
                    "internalType": "address"
                }
            ],
            "anonymous": false
        },
        {
            "type": "event",
            "name": "PropertyActivated",
            "inputs": [],
            "anonymous": false
        },
        {
            "type": "event",
            "name": "SharePurchased",
            "inputs": [
                {
                    "name": "tokenId",
                    "type": "uint256",
                    "indexed": true,
                    "internalType": "uint256"
                },
                {
                    "name": "buyer",
                    "type": "address",
                    "indexed": true,
                    "internalType": "address"
                },
                {
                    "name": "percentage",
                    "type": "uint256",
                    "indexed": false,
                    "internalType": "uint256"
                },
                {
                    "name": "price",
                    "type": "uint256",
                    "indexed": false,
                    "internalType": "uint256"
                }
            ],
            "anonymous": false
        },
        {
            "type": "event",
            "name": "Transfer",
            "inputs": [
                {
                    "name": "from",
                    "type": "address",
                    "indexed": true,
                    "internalType": "address"
                },
                {
                    "name": "to",
                    "type": "address",
                    "indexed": true,
                    "internalType": "address"
                },
                {
                    "name": "tokenId",
                    "type": "uint256",
                    "indexed": true,
                    "internalType": "uint256"
                }
            ],
            "anonymous": false
        },
        {
            "type": "event",
            "name": "Unpaused",
            "inputs": [
                {
                    "name": "account",
                    "type": "address",
                    "indexed": false,
                    "internalType": "address"
                }
            ],
            "anonymous": false
        },
        {
            "type": "event",
            "name": "YieldClaimed",
            "inputs": [
                {
                    "name": "tokenId",
                    "type": "uint256",
                    "indexed": true,
                    "internalType": "uint256"
                },
                {
                    "name": "claimer",
                    "type": "address",
                    "indexed": true,
                    "internalType": "address"
                },
                {
                    "name": "amount",
                    "type": "uint256",
                    "indexed": false,
                    "internalType": "uint256"
                }
            ],
            "anonymous": false
        },
        {
            "type": "event",
            "name": "YieldDeposited",
            "inputs": [
                {
                    "name": "amount",
                    "type": "uint256",
                    "indexed": false,
                    "internalType": "uint256"
                }
            ],
            "anonymous": false
        },
        {
            "type": "event",
            "name": "YieldReserveLow",
            "inputs": [
                {
                    "name": "currentReserve",
                    "type": "uint256",
                    "indexed": false,
                    "internalType": "uint256"
                },
                {
                    "name": "minimumRequired",
                    "type": "uint256",
                    "indexed": false,
                    "internalType": "uint256"
                }
            ],
            "anonymous": false
        },
        {
            "type": "error",
            "name": "ERC721IncorrectOwner",
            "inputs": [
                {
                    "name": "sender",
                    "type": "address",
                    "internalType": "address"
                },
                {
                    "name": "tokenId",
                    "type": "uint256",
                    "internalType": "uint256"
                },
                {
                    "name": "owner",
                    "type": "address",
                    "internalType": "address"
                }
            ]
        },
        {
            "type": "error",
            "name": "ERC721InsufficientApproval",
            "inputs": [
                {
                    "name": "operator",
                    "type": "address",
                    "internalType": "address"
                },
                {
                    "name": "tokenId",
                    "type": "uint256",
                    "internalType": "uint256"
                }
            ]
        },
        {
            "type": "error",
            "name": "ERC721InvalidApprover",
            "inputs": [
                {
                    "name": "approver",
                    "type": "address",
                    "internalType": "address"
                }
            ]
        },
        {
            "type": "error",
            "name": "ERC721InvalidOperator",
            "inputs": [
                {
                    "name": "operator",
                    "type": "address",
                    "internalType": "address"
                }
            ]
        },
        {
            "type": "error",
            "name": "ERC721InvalidOwner",
            "inputs": [
                {
                    "name": "owner",
                    "type": "address",
                    "internalType": "address"
                }
            ]
        },
        {
            "type": "error",
            "name": "ERC721InvalidReceiver",
            "inputs": [
                {
                    "name": "receiver",
                    "type": "address",
                    "internalType": "address"
                }
            ]
        },
        {
            "type": "error",
            "name": "ERC721InvalidSender",
            "inputs": [
                {
                    "name": "sender",
                    "type": "address",
                    "internalType": "address"
                }
            ]
        },
        {
            "type": "error",
            "name": "ERC721NonexistentToken",
            "inputs": [
                {
                    "name": "tokenId",
                    "type": "uint256",
                    "internalType": "uint256"
                }
            ]
        },
        {
            "type": "error",
            "name": "EnforcedPause",
            "inputs": []
        },
        {
            "type": "error",
            "name": "ExpectedPause",
            "inputs": []
        },
        {
            "type": "error",
            "name": "OwnableInvalidOwner",
            "inputs": [
                {
                    "name": "owner",
                    "type": "address",
                    "internalType": "address"
                }
            ]
        },
        {
            "type": "error",
            "name": "OwnableUnauthorizedAccount",
            "inputs": [
                {
                    "name": "account",
                    "type": "address",
                    "internalType": "address"
                }
            ]
        },
        {
            "type": "error",
            "name": "ReentrancyGuardReentrantCall",
            "inputs": []
        }
    ],
    "bytecode": {
        "object": "0x60c06040523461061d57612ba28038038061001981610621565b9283398101906101408183031261061d5780516001600160401b03811161061d5782610046918301610646565b602082015190926001600160401b03821161061d57610066918301610646565b61007260408301610697565b9061007f60608401610697565b61008b60808501610697565b9060a08501519060c08601519260e0870151946101206101008901519801519880519060018060401b038211610326575f5490600182811c92168015610613575b602083101461051a5781601f8493116105a6575b50602090601f8311600114610543575f92610538575b50508160011b915f199060031b1c1916175f555b8051906001600160401b0382116103265760015490600182811c9216801561052e575b602083101461051a5781601f8493116104ac575b50602090601f8311600114610446575f9261043b575b50508160011b915f199060031b1c1916176001555b6001600160a01b038116801561042857600680546001600160a01b0319811683179091556001600160a01b03167f8be0079c531659141344cd1fd0a4f28419497f9722a3daafe3b4186f6b6457e05f80a360016007556001600160a01b038616916101d88315156106ab565b6001600160a01b03166101ec8115156106ab565b6101f660016106ab565b6102018415156106e9565b61020c8515156106e9565b851561021881156106e9565b61271086116103e45762034bc087029087820462034bc01417156103d0576209e340870290808204600314901517156103d057881061038b57881561033a5760805260a0526040516101008101906001600160401b0382118183101761032657889260e0926040528482528560208301528560408301528660608301525f608083015260a08201528760c08201520152600a5580600b55600c55600d55600e5490610100600160a81b039060081b169060018060a81b03191617600e55600f5560105560405161246c9081610736823960805181818161035201528181610a6d0152818161119e01526116c6015260a05181818161095401528181610e4b01528181610f2601526115f10152f35b634e487b7160e01b5f52604160045260245ffd5b60405162461bcd60e51b8152602060048201526024808201527f50726f70657274792074797065206d75737420626520677265617465722074686044820152630616e20360e41b6064820152608490fd5b60405162461bcd60e51b815260206004820152601c60248201527f496e73756666696369656e7420696e697469616c2072657365727665000000006044820152606490fd5b634e487b7160e01b5f52601160045260245ffd5b606460405162461bcd60e51b815260206004820152602060248201527f546f74616c207368617265732063616e6e6f74206578636565642031303030306044820152fd5b631e4fbdf760e01b5f525f60045260245ffd5b015190505f80610157565b60015f9081528281209350601f198516905b818110610494575090846001959493921061047c575b505050811b0160015561016c565b01515f1960f88460031b161c191690555f808061046e565b92936020600181928786015181550195019301610458565b60015f529091507fb10e2d527612073b26eecdfd717e6a320cf44b4afac2b0732d9fcbe2b7fa0cf6601f840160051c81019160208510610510575b90601f859493920160051c01905b8181106105025750610141565b5f81558493506001016104f5565b90915081906104e7565b634e487b7160e01b5f52602260045260245ffd5b91607f169161012d565b015190505f806100f6565b5f8080528281209350601f198516905b81811061058e5750908460019594939210610576575b505050811b015f5561010a565b01515f1960f88460031b161c191690555f8080610569565b92936020600181928786015181550195019301610553565b5f80529091507f290decd9548b62a8d60345a988386fc84ba6bc95484008f6362f93160ef3e563601f840160051c81019160208510610609575b90601f859493920160051c01905b8181106105fb57506100e0565b5f81558493506001016105ee565b90915081906105e0565b91607f16916100cc565b5f80fd5b6040519190601f01601f191682016001600160401b0381118382101761032657604052565b81601f8201121561061d578051906001600160401b03821161032657610675601f8301601f1916602001610621565b928284526020838301011161061d57815f9260208093018386015e8301015290565b51906001600160a01b038216820361061d57565b156106b257565b60405162461bcd60e51b815260206004820152600f60248201526e496e76616c6964206164647265737360881b6044820152606490fd5b156106f057565b60405162461bcd60e51b815260206004820152601d60248201527f416d6f756e74206d7573742062652067726561746572207468616e20300000006044820152606490fdfe6080806040526004361015610012575f80fd5b5f905f3560e01c90816301ffc9a714611aeb5750806306fdde0314611a33578063077510701461194057806307d015dd14611924578063081812fc146118e8578063095ea7b3146117fe578063176fd3f0146117965780631da264851461166057806323b872dd146116495780632e7d87241461161f5780633f4ba83a1461154757806340398d671461141557806340bd2e231461102857806342842e0e14610ff957806344dced7e14610fbb5780634aaf5d2914610f145780634c94b33b14610e7957806351858e2714610d9e57806357a858fc14610d5d5780635c975abb14610d3b5780636352211e14610d0b5780636e3951e114610ced57806370a0823114610cc2578063715018a614610c675780638da5cb5b14610c3f57806395d89b4114610b37578063a22cb46514610a9c578063a98ad46c14610a58578063aaf5eb6814610a36578063b88d4fde146109a0578063c409084a14610983578063c45a01551461093f578063c87b56dd146108e6578063cfb5a5f814610849578063df48981a14610298578063e985e9c5146102405763f2fde38b146101b5575f80fd5b3461023d57602036600319011261023d576101ce611b7a565b6101d66122d9565b6001600160a01b0316801561022957600680546001600160a01b0319811683179091556001600160a01b03167f8be0079c531659141344cd1fd0a4f28419497f9722a3daafe3b4186f6b6457e05f80a380f35b631e4fbdf760e01b82526004829052602482fd5b80fd5b503461023d57604036600319011261023d57604061025c611b7a565b91610265611b90565b9260018060a01b031681526005602052209060018060a01b03165f52602052602060ff60405f2054166040519015158152f35b503461023d57602036600319011261023d57600435906102b6612291565b6102c460ff600e5416611f72565b6102d360ff6008541615611fb4565b81156102df8115611c6b565b82600c541061080457600b5490600a820484116107c0576127108402908482046127101417156107ac576103168261032892612055565b9161032385600a54612042565b612055565b6040516323b872dd60e01b8152336004820152306024820152604481018290526001600160a01b037f000000000000000000000000000000000000000000000000000000000000000016919060208160648188875af19081156107a15790610397918691610782575b50611ccf565b6103a2600954611f64565b91826009556020956040516103b78882611c2d565b868152331561076e575f8581526002895260409020546001600160a01b0316801515908161073d575b335f81815260038c5260408082208054600101905589825260028d52812080546001600160a01b0319168317905588919083907fddf252ad1be2c89b69c2b068fc378daa952ba7f163c4a11628f55a4df523b3ef9080a48180610735575b8061072b575b6106f3575b506106df57333b6105be575b5095826104f3926104b283959697989960405161047181611c11565b8a815260028a8d60408985019189835281860193428552815260118b52209351845551600184015551910155888b52601285524260408c2055600c54612035565b600c55600e5460405163a9059cbb60e01b815260089190911c6001600160a01b031660048201526024810192909252909283919082908a9082906044820190565b03925af19081156105b3578691610586575b5015610542576040519384528301527ff59c29c0bc0944b18cd07acdd8535678ace6c9d8e729009d04119b7be8e2a4cc60403393a3600160075580f35b6064906040519062461bcd60e51b82526004820152601860248201527f5472616e7366657220746f206f776e6572206661696c656400000000000000006044820152fd5b6105a69150823d84116105ac575b61059e8183611c2d565b810190611cb7565b5f610505565b503d610594565b6040513d88823e3d90fd5b876105fa9160409493945180938192630a85bd0160e11b83523360048401525f6024840152896044840152608060648401526084830190611b56565b03815f335af15f918161069b575b5061065c57873d15610654573d9061061f82611c4f565b9161062d6040519384611c2d565b82523d5f8284013e5b8151918261065157633250574960e11b5f523360045260245ffd5b01fd5b606090610636565b95969495939492936001600160e01b03191663757a42ff60e11b01610688579195949392919082610455565b633250574960e11b5f523360045260245ffd5b9091508881813d83116106d8575b6106b38183611c2d565b810103126106d457516001600160e01b0319811681036106d457905f610608565b5f80fd5b503d6106a9565b6339e3563760e11b87526004879052602487fd5b865f5260128a5260405f20548015159081610721575b501561044957865f5260128a524260405f2055610449565b905042115f610709565b5033811415610444565b50600161043e565b5f8781526004602052604080822080546001600160a01b031916905582825260038c52902080545f190190556103e0565b633250574960e11b87526004879052602487fd5b61079b915060203d6020116105ac5761059e8183611c2d565b5f610391565b6040513d87823e3d90fd5b634e487b7160e01b83526011600452602483fd5b606460405162461bcd60e51b815260206004820152602060248201527f43616e6e6f7420627579206d6f7265207468616e20313025206174206f6e63656044820152fd5b60405162461bcd60e51b815260206004820152601b60248201527f4e6f7420656e6f7567682073686172657320617661696c61626c6500000000006044820152606490fd5b503461023d57602036600319011261023d5760406060916004358183805161087081611c11565b82815282602082015201526108a061089b825f52600260205260018060a01b0360405f205416151590565b611ff2565b81526011602052206040516108b481611c11565b815491828252604060026001830154926020850193845201549201918252604051928352516020830152516040820152f35b346106d45760203660031901126106d45761090260043561225d565b505f604051610912602082611c2d565b5261093b604051610924602082611c2d565b5f8152604051918291602083526020830190611b56565b0390f35b346106d4575f3660031901126106d4576040517f00000000000000000000000000000000000000000000000000000000000000006001600160a01b03168152602090f35b346106d4575f3660031901126106d457602060405162034bc08152f35b346106d45760803660031901126106d4576109b9611b7a565b6109c1611b90565b906044356064359267ffffffffffffffff84116106d457366023850112156106d4578360040135926109f284611c4f565b93610a006040519586611c2d565b80855236602482880101116106d4576020815f926024610a3499018389013786010152610a2e838383611d12565b33612300565b005b346106d4575f3660031901126106d4576020604051670de0b6b3a76400008152f35b346106d4575f3660031901126106d4576040517f00000000000000000000000000000000000000000000000000000000000000006001600160a01b03168152602090f35b346106d45760403660031901126106d457610ab5611b7a565b602435908115158092036106d4576001600160a01b0316908115610b2457335f52600560205260405f20825f5260205260405f2060ff1981541660ff83161790556040519081527f17307eab39ab6107e8899845ad3d59bd9653f200f220920489ca2b5937696c3160203392a3005b50630b61174360e31b5f5260045260245ffd5b346106d4575f3660031901126106d4576040515f6001548060011c90600181168015610c35575b602083108114610c2157828552908115610bfd5750600114610b9f575b61093b83610b8b81850382611c2d565b604051918291602083526020830190611b56565b91905060015f527fb10e2d527612073b26eecdfd717e6a320cf44b4afac2b0732d9fcbe2b7fa0cf6915f905b808210610be357509091508101602001610b8b610b7b565b919260018160209254838588010152019101909291610bcb565b60ff191660208086019190915291151560051b84019091019150610b8b9050610b7b565b634e487b7160e01b5f52602260045260245ffd5b91607f1691610b5e565b346106d4575f3660031901126106d4576006546040516001600160a01b039091168152602090f35b346106d4575f3660031901126106d457610c7f6122d9565b600680546001600160a01b031981169091555f906001600160a01b03167f8be0079c531659141344cd1fd0a4f28419497f9722a3daafe3b4186f6b6457e08280a3005b346106d45760203660031901126106d4576020610ce5610ce0611b7a565b61222c565b604051908152f35b346106d45760203660031901126106d4576020610ce56004356121a0565b346106d45760203660031901126106d4576020610d2960043561225d565b6040516001600160a01b039091168152f35b346106d4575f3660031901126106d457602060ff600854166040519015158152f35b346106d45760203660031901126106d4576004355f526011602052606060405f20805490600260018201549101549060405192835260208301526040820152f35b346106d4575f3660031901126106d457600e543360089190911c6001600160a01b0316148015610e47575b610dd290611f11565b60085460ff8116610e385760019060ff1916176008557f62e78cea01bee320cd4e420270b5ea74000d11b0c9f74754ebdbfc544b05a2586020604051338152a17f4cb3183d0bf66f9634b15cfc3539fdddc96c2c9324848af89b56586a6739fec45f80a1005b63d93c066560e01b5f5260045ffd5b50337f00000000000000000000000000000000000000000000000000000000000000006001600160a01b031614610dc9565b346106d4575f3660031901126106d4575f5f600f5490600d54928315938415610eb6575b5060609350604051928352602083015215156040820152f35b80925062034bc09150029281840462034bc0141715610f005763066ff300610ede8484612055565b9102928084046101f41490151715610f00576127106060930482109084610e9d565b634e487b7160e01b5f52601160045260245ffd5b346106d4575f3660031901126106d4577f00000000000000000000000000000000000000000000000000000000000000006001600160a01b03163303610f8757600160ff19600e541617600e557f4c2b878c73187a4275715b6f8ad92bff391238461c0280b832cd04a7c8a5bb395f80a1005b60405162461bcd60e51b815260206004820152600c60248201526b4f6e6c7920666163746f727960a01b6044820152606490fd5b346106d45760203660031901126106d45760a0610fd9600435612073565b926040929192519485526020850152604084015260608301526080820152f35b346106d457610a3461100a36611ba6565b906040519261101a602085611c2d565b5f8452610a2e838383611d12565b346106d45760203660031901126106d457600435611044612291565b61105260ff600e5416611f72565b61106160ff6008541615611fb4565b61106a8161225d565b336001600160a01b03909116036113de57600d54156113a3575f818152600260205260409020546110a5906001600160a01b03161515611ff2565b805f52601260205260405f20548015611368578042111561132b576110fd90825f52601160205260405f20906040516110dd81611c11565b6040600284549485845260018101546020850152015491015242916122b1565b9081156112f257600f548281106112ea575b5081156112a557805f5260126020524260405f205561113082600f54612035565b80600f55600d5462034bc081029080820462034bc01481151715610f005763066ff30002908082046101f41490151715610f0057612710900480821061126e575b505060405163a9059cbb60e01b8152336004820152602481018390526020816044815f6001600160a01b037f0000000000000000000000000000000000000000000000000000000000000000165af1908115611263575f91611244575b5015611207576040519182527f1448cb68839238fd008abe5bad73d996f9849e020313466fa9f3476d98006df260203393a36001600755005b60405162461bcd60e51b8152602060048201526015602482015274165a595b19081d1c985b9cd9995c8819985a5b1959605a1b6044820152606490fd5b61125d915060203d6020116105ac5761059e8183611c2d565b836111ce565b6040513d5f823e3d90fd5b7fb2243ddf904971054fd0c66bfffcb29eecf65dbf0a73ecbbf52a148b21075bf39160409182519182526020820152a18280611171565b60405162461bcd60e51b815260206004820152601a60248201527f496e73756666696369656e74207969656c6420726573657276650000000000006044820152606490fd5b91508261110f565b60405162461bcd60e51b81526020600482015260116024820152704e6f207969656c6420746f20636c61696d60781b6044820152606490fd5b60405162461bcd60e51b8152602060048201526015602482015274139bc81e5a595b19081d1bc818db185a5b481e595d605a1b6044820152606490fd5b60405162461bcd60e51b8152602060048201526013602482015272496e76616c696420746f6b656e20737461746560681b6044820152606490fd5b60405162461bcd60e51b8152602060048201526013602482015272139bc81e5a595b190818dbdb999a59dd5c9959606a1b6044820152606490fd5b60405162461bcd60e51b815260206004820152600f60248201526e2737ba103a37b5b2b71037bbb732b960891b6044820152606490fd5b346106d45760203660031901126106d45761142e611b7a565b6114378161222c565b9061145a61144483611f4c565b926114526040519485611c2d565b808452611f4c565b602083019190601f19013683376009545f9160015b828111156114bb578486604051918291602083019060208452518091526040830191905f5b8181106114a2575050500390f35b8251845285945060209384019390920191600101611494565b5f818152600260205260409020546001600160a01b031615158061152a575b6114ed575b6114e890611f64565b61146f565b9285518110156115165761150e818560206114e89460051b8a010152611f64565b9390506114df565b634e487b7160e01b5f52603260045260245ffd5b506115348161225d565b6001600160a01b038381169116146114da565b346106d4575f3660031901126106d457600e543360089190911c6001600160a01b03161480156115ed575b61157b90611f11565b60085460ff8116156115de5760ff19166008557f5db9ee0a495bf2e6ff9c91a7834c1ba4fdd244a5e8aa4e537bd38aeae4b073aa6020604051338152a17f15de7ad89d29fd1c6d2e6b1e878453569b4080edf34e0105faaa3bd52f0185305f80a1005b638dfc202b60e01b5f5260045ffd5b50337f00000000000000000000000000000000000000000000000000000000000000006001600160a01b031614611572565b346106d45760203660031901126106d4576004355f526012602052602060405f2054604051908152f35b346106d457610a3461165a36611ba6565b91611d12565b346106d45760203660031901126106d457600e546004359060081c6001600160a01b0316330361175b57611695811515611c6b565b6040516323b872dd60e01b8152336004820152306024820152604481018290526020816064815f6001600160a01b037f0000000000000000000000000000000000000000000000000000000000000000165af18015611263576116fe915f9161173c5750611ccf565b600f54818101809111610f00577f6efedac2f5ab810f0507b22f5e395fa2d33dec417590d47b2b677e13ecdb061991602091600f55604051908152a1005b611755915060203d6020116105ac5761059e8183611c2d565b83610391565b60405162461bcd60e51b815260206004820152601360248201527227b7363c90383937b832b93a3c9037bbb732b960691b6044820152606490fd5b346106d4575f3660031901126106d457610100600a54600b54600c54600d54600e5490600f54926010549460405196875260208701526040860152606085015260ff81161515608085015260018060a01b039060081c1660a084015260c083015260e0820152f35b346106d45760403660031901126106d457611817611b7a565b6024356118238161225d565b331515806118d5575b806118a8575b6118955781906001600160a01b0384811691167f8c5be1e5ebec7d5bd14f71427d1e84f3dd0314c0f7b2291e5b200ac8c7c3b9255f80a45f90815260046020526040902080546001600160a01b0319166001600160a01b03909216919091179055005b63a9fbf51f60e01b5f523360045260245ffd5b506001600160a01b0381165f90815260056020908152604080832033845290915290205460ff1615611832565b506001600160a01b03811633141561182c565b346106d45760203660031901126106d4576004356119058161225d565b505f526004602052602060018060a01b0360405f205416604051908152f35b346106d4575f3660031901126106d45760206040516101f48152f35b346106d4575f3660031901126106d4575f60e060405161195f81611be0565b8281528260208201528260408201528260608201528260808201528260a08201528260c0820152015261010060405161199781611be0565b600a5490818152600b5460208201908152600c5460408301908152600d549060608401918252600e5491608085019160ff84161515835260a086019360018060a01b039060081c168452600f549460c0870195865260e06010549701968752604051978852516020880152516040870152516060860152511515608085015260018060a01b0390511660a08401525160c08301525160e0820152f35b346106d4575f3660031901126106d4576040515f5f548060011c90600181168015611ae1575b602083108114610c2157828552908115610bfd5750600114611a855761093b83610b8b81850382611c2d565b5f8080527f290decd9548b62a8d60345a988386fc84ba6bc95484008f6362f93160ef3e563939250905b808210611ac757509091508101602001610b8b610b7b565b919260018160209254838588010152019101909291611aaf565b91607f1691611a59565b346106d45760203660031901126106d4576004359063ffffffff60e01b82168092036106d4576020916380ac58cd60e01b8114908115611b45575b8115611b34575b5015158152f35b6301ffc9a760e01b14905083611b2d565b635b5e139f60e01b81149150611b26565b805180835260209291819084018484015e5f828201840152601f01601f1916010190565b600435906001600160a01b03821682036106d457565b602435906001600160a01b03821682036106d457565b60609060031901126106d4576004356001600160a01b03811681036106d457906024356001600160a01b03811681036106d4579060443590565b610100810190811067ffffffffffffffff821117611bfd57604052565b634e487b7160e01b5f52604160045260245ffd5b6060810190811067ffffffffffffffff821117611bfd57604052565b90601f8019910116810190811067ffffffffffffffff821117611bfd57604052565b67ffffffffffffffff8111611bfd57601f01601f191660200190565b15611c7257565b60405162461bcd60e51b815260206004820152601d60248201527f416d6f756e74206d7573742062652067726561746572207468616e20300000006044820152606490fd5b908160209103126106d4575180151581036106d45790565b15611cd657565b60405162461bcd60e51b81526020600482015260146024820152731554d115081d1c985b9cd9995c8819985a5b195960621b6044820152606490fd5b6001600160a01b0390911691908215611efe575f828152600260205260409020546001600160a01b03169233151580611e6e575b508315159081611e3b575b805f52600360205260405f2060018154019055835f52600260205260405f20816bffffffffffffffffffffffff60a01b8254161790558381867fddf252ad1be2c89b69c2b068fc378daa952ba7f163c4a11628f55a4df523b3ef5f80a481611e32575b81611e27575b50611ded575b6001600160a01b0316808303611dd557505050565b6364283d7b60e01b5f5260045260245260445260645ffd5b815f52601260205260405f20548015159081611e1d575b5015611dc057815f5260126020524260405f2055611dc0565b905042115f611e04565b90508314155f611dba565b60019150611db4565b5f84815260046020526040902080546001600160a01b0319169055845f52600360205260405f205f198154019055611d51565b80611ead575b15611e7f575f611d46565b8284611e9757637e27328960e01b5f5260045260245ffd5b63177e802f60e01b5f523360045260245260445ffd5b503384148015611edc575b80611e7457505f838152600460205260409020546001600160a01b03163314611e74565b505f84815260056020908152604080832033845290915290205460ff16611eb8565b633250574960e11b5f525f60045260245ffd5b15611f1857565b60405162461bcd60e51b815260206004820152600c60248201526b155b985d5d1a1bdc9a5e995960a21b6044820152606490fd5b67ffffffffffffffff8111611bfd5760051b60200190565b5f198114610f005760010190565b15611f7957565b60405162461bcd60e51b815260206004820152601360248201527250726f7065727479206e6f742061637469766560681b6044820152606490fd5b15611fbb57565b60405162461bcd60e51b815260206004820152600f60248201526e141c9bdc195c9d1e481c185d5cd959608a1b6044820152606490fd5b15611ff957565b60405162461bcd60e51b8152602060048201526014602482015273151bdad95b88191bd95cc81b9bdd08195e1a5cdd60621b6044820152606490fd5b91908203918211610f0057565b81810292918115918404141715610f0057565b811561205f570490565b634e487b7160e01b5f52601260045260245ffd5b5f818152600260205260408120549091906001600160a01b0316158015612193575b8015612189575b61217b57805f52601160205260405f2091604051906120ba82611c11565b600284549485845260018101546020850152015460408301526127106120e3600d549586612042565b0494611c208602868104611c201487151715610f00579462034bc081029080820462034bc01490151715610f005761212061271091855190612042565b04935f52601260205260405f2054928342115f14612174576121428442612035565b935b600c850494612151575050565b61215f9293504291516122b1565b600f54908181111561216f575090565b905090565b5f93612144565b50505f905f905f905f905f90565b50600d541561209c565b5060ff600e541615612095565b5f818152600260205260409020546001600160a01b031615801561221f575b8015612215575b61221057805f52601260205260405f205480158015612206575b6122005761215f915f52601160205260405f20906040516110dd81611c11565b50505f90565b50804211156121e0565b505f90565b50600d54156121c6565b5060ff600e5416156121bf565b6001600160a01b0316801561224a575f52600360205260405f205490565b6322718ad960e21b5f525f60045260245ffd5b5f818152600260205260409020546001600160a01b031690811561227f575090565b637e27328960e01b5f5260045260245ffd5b6002600754146122a2576002600755565b633ee5aeb560e01b5f5260045ffd5b6122d0600c6122c66122d59461271096612035565b0491600d54612042565b612042565b0490565b6006546001600160a01b031633036122ed57565b63118cdaa760e01b5f523360045260245ffd5b823b61230e575b5050505050565b604051630a85bd0160e11b81526001600160a01b03918216600482015291811660248301526044820193909352608060648201529116916020908290819061235a906084830190611b56565b03815f865af15f91816123f1575b506123bd57503d156123b6573d61237e81611c4f565b9061238c6040519283611c2d565b81523d5f602083013e5b805190816123b15782633250574960e11b5f5260045260245ffd5b602001fd5b6060612396565b6001600160e01b03191663757a42ff60e11b016123df57505f80808080612307565b633250574960e11b5f5260045260245ffd5b9091506020813d60201161242e575b8161240d60209383611c2d565b810103126106d457516001600160e01b0319811681036106d457905f612368565b3d915061240056fea26469706673582212209d071e6f3221a1960a80c7c330d62d1e6131a7c482c3d29d54e844e04ba769c064736f6c634300081c0033",
        "linkReferences": {}
    },
    "methodIdentifiers": {
        "BLOCKS_PER_MONTH()": "c409084a",
        "MIN_YIELD_RESERVE_RATIO()": "07d015dd",
        "PRECISION()": "aaf5eb68",
        "activateProperty()": "4aaf5d29",
        "approve(address,uint256)": "095ea7b3",
        "balanceOf(address)": "70a08231",
        "calculateClaimableYield(uint256)": "6e3951e1",
        "claimYield(uint256)": "40bd2e23",
        "depositYieldReserve(uint256)": "1da26485",
        "emergencyPause()": "51858e27",
        "factory()": "c45a0155",
        "getApproved(uint256)": "081812fc",
        "getProperty()": "07751070",
        "getShare(uint256)": "cfb5a5f8",
        "getTokensByOwner(address)": "40398d67",
        "getYieldInfo(uint256)": "44dced7e",
        "getYieldReserveStatus()": "4c94b33b",
        "isApprovedForAll(address,address)": "e985e9c5",
        "lastClaimedYield(uint256)": "2e7d8724",
        "name()": "06fdde03",
        "owner()": "8da5cb5b",
        "ownerOf(uint256)": "6352211e",
        "paused()": "5c975abb",
        "property()": "176fd3f0",
        "purchaseShares(uint256)": "df48981a",
        "renounceOwnership()": "715018a6",
        "safeTransferFrom(address,address,uint256)": "42842e0e",
        "safeTransferFrom(address,address,uint256,bytes)": "b88d4fde",
        "setApprovalForAll(address,bool)": "a22cb465",
        "shares(uint256)": "57a858fc",
        "supportsInterface(bytes4)": "01ffc9a7",
        "symbol()": "95d89b41",
        "tokenURI(uint256)": "c87b56dd",
        "transferFrom(address,address,uint256)": "23b872dd",
        "transferOwnership(address)": "f2fde38b",
        "unpause()": "3f4ba83a",
        "usdtToken()": "a98ad46c"
    },
    "id": 46
}