{
    "abi": [
        {
            "type": "constructor",
            "inputs": [
                {
                    "name": "_feeRecipient",
                    "type": "address",
                    "internalType": "address"
                }
            ],
            "stateMutability": "nonpayable"
        },
        {
            "type": "function",
            "name": "MAX_FEE",
            "inputs": [],
            "outputs": [
                {
                    "name": "",
                    "type": "uint256",
                    "internalType": "uint256"
                }
            ],
            "stateMutability": "view"
        },
        {
            "type": "function",
            "name": "cancelListing",
            "inputs": [
                {
                    "name": "listingId",
                    "type": "uint256",
                    "internalType": "uint256"
                }
            ],
            "outputs": [],
            "stateMutability": "nonpayable"
        },
        {
            "type": "function",
            "name": "emergencyCancelListing",
            "inputs": [
                {
                    "name": "listingId",
                    "type": "uint256",
                    "internalType": "uint256"
                }
            ],
            "outputs": [],
            "stateMutability": "nonpayable"
        },
        {
            "type": "function",
            "name": "feeRecipient",
            "inputs": [],
            "outputs": [
                {
                    "name": "",
                    "type": "address",
                    "internalType": "address"
                }
            ],
            "stateMutability": "view"
        },
        {
            "type": "function",
            "name": "getActiveListings",
            "inputs": [],
            "outputs": [
                {
                    "name": "",
                    "type": "uint256[]",
                    "internalType": "uint256[]"
                }
            ],
            "stateMutability": "view"
        },
        {
            "type": "function",
            "name": "getListing",
            "inputs": [
                {
                    "name": "listingId",
                    "type": "uint256",
                    "internalType": "uint256"
                }
            ],
            "outputs": [
                {
                    "name": "",
                    "type": "tuple",
                    "internalType": "struct Marketplace.Listing",
                    "components": [
                        {
                            "name": "seller",
                            "type": "address",
                            "internalType": "address"
                        },
                        {
                            "name": "nftContract",
                            "type": "address",
                            "internalType": "address"
                        },
                        {
                            "name": "tokenId",
                            "type": "uint256",
                            "internalType": "uint256"
                        },
                        {
                            "name": "paymentToken",
                            "type": "address",
                            "internalType": "address"
                        },
                        {
                            "name": "price",
                            "type": "uint256",
                            "internalType": "uint256"
                        },
                        {
                            "name": "active",
                            "type": "bool",
                            "internalType": "bool"
                        },
                        {
                            "name": "listedAt",
                            "type": "uint256",
                            "internalType": "uint256"
                        }
                    ]
                }
            ],
            "stateMutability": "view"
        },
        {
            "type": "function",
            "name": "getListingsBySeller",
            "inputs": [
                {
                    "name": "seller",
                    "type": "address",
                    "internalType": "address"
                }
            ],
            "outputs": [
                {
                    "name": "",
                    "type": "uint256[]",
                    "internalType": "uint256[]"
                }
            ],
            "stateMutability": "view"
        },
        {
            "type": "function",
            "name": "isNFTListed",
            "inputs": [
                {
                    "name": "nftContract",
                    "type": "address",
                    "internalType": "address"
                },
                {
                    "name": "tokenId",
                    "type": "uint256",
                    "internalType": "uint256"
                }
            ],
            "outputs": [
                {
                    "name": "",
                    "type": "bool",
                    "internalType": "bool"
                },
                {
                    "name": "",
                    "type": "uint256",
                    "internalType": "uint256"
                }
            ],
            "stateMutability": "view"
        },
        {
            "type": "function",
            "name": "listNFT",
            "inputs": [
                {
                    "name": "nftContract",
                    "type": "address",
                    "internalType": "address"
                },
                {
                    "name": "tokenId",
                    "type": "uint256",
                    "internalType": "uint256"
                },
                {
                    "name": "paymentToken",
                    "type": "address",
                    "internalType": "address"
                },
                {
                    "name": "price",
                    "type": "uint256",
                    "internalType": "uint256"
                }
            ],
            "outputs": [],
            "stateMutability": "nonpayable"
        },
        {
            "type": "function",
            "name": "listingCounter",
            "inputs": [],
            "outputs": [
                {
                    "name": "",
                    "type": "uint256",
                    "internalType": "uint256"
                }
            ],
            "stateMutability": "view"
        },
        {
            "type": "function",
            "name": "listings",
            "inputs": [
                {
                    "name": "",
                    "type": "uint256",
                    "internalType": "uint256"
                }
            ],
            "outputs": [
                {
                    "name": "seller",
                    "type": "address",
                    "internalType": "address"
                },
                {
                    "name": "nftContract",
                    "type": "address",
                    "internalType": "address"
                },
                {
                    "name": "tokenId",
                    "type": "uint256",
                    "internalType": "uint256"
                },
                {
                    "name": "paymentToken",
                    "type": "address",
                    "internalType": "address"
                },
                {
                    "name": "price",
                    "type": "uint256",
                    "internalType": "uint256"
                },
                {
                    "name": "active",
                    "type": "bool",
                    "internalType": "bool"
                },
                {
                    "name": "listedAt",
                    "type": "uint256",
                    "internalType": "uint256"
                }
            ],
            "stateMutability": "view"
        },
        {
            "type": "function",
            "name": "owner",
            "inputs": [],
            "outputs": [
                {
                    "name": "",
                    "type": "address",
                    "internalType": "address"
                }
            ],
            "stateMutability": "view"
        },
        {
            "type": "function",
            "name": "pause",
            "inputs": [],
            "outputs": [],
            "stateMutability": "nonpayable"
        },
        {
            "type": "function",
            "name": "paused",
            "inputs": [],
            "outputs": [
                {
                    "name": "",
                    "type": "bool",
                    "internalType": "bool"
                }
            ],
            "stateMutability": "view"
        },
        {
            "type": "function",
            "name": "platformFee",
            "inputs": [],
            "outputs": [
                {
                    "name": "",
                    "type": "uint256",
                    "internalType": "uint256"
                }
            ],
            "stateMutability": "view"
        },
        {
            "type": "function",
            "name": "purchaseNFT",
            "inputs": [
                {
                    "name": "listingId",
                    "type": "uint256",
                    "internalType": "uint256"
                }
            ],
            "outputs": [],
            "stateMutability": "nonpayable"
        },
        {
            "type": "function",
            "name": "renounceOwnership",
            "inputs": [],
            "outputs": [],
            "stateMutability": "nonpayable"
        },
        {
            "type": "function",
            "name": "setFeeRecipient",
            "inputs": [
                {
                    "name": "newRecipient",
                    "type": "address",
                    "internalType": "address"
                }
            ],
            "outputs": [],
            "stateMutability": "nonpayable"
        },
        {
            "type": "function",
            "name": "setPlatformFee",
            "inputs": [
                {
                    "name": "newFee",
                    "type": "uint256",
                    "internalType": "uint256"
                }
            ],
            "outputs": [],
            "stateMutability": "nonpayable"
        },
        {
            "type": "function",
            "name": "transferOwnership",
            "inputs": [
                {
                    "name": "newOwner",
                    "type": "address",
                    "internalType": "address"
                }
            ],
            "outputs": [],
            "stateMutability": "nonpayable"
        },
        {
            "type": "function",
            "name": "unpause",
            "inputs": [],
            "outputs": [],
            "stateMutability": "nonpayable"
        },
        {
            "type": "event",
            "name": "FeeRecipientUpdated",
            "inputs": [
                {
                    "name": "oldRecipient",
                    "type": "address",
                    "indexed": false,
                    "internalType": "address"
                },
                {
                    "name": "newRecipient",
                    "type": "address",
                    "indexed": false,
                    "internalType": "address"
                }
            ],
            "anonymous": false
        },
        {
            "type": "event",
            "name": "ListingCancelled",
            "inputs": [
                {
                    "name": "listingId",
                    "type": "uint256",
                    "indexed": true,
                    "internalType": "uint256"
                },
                {
                    "name": "seller",
                    "type": "address",
                    "indexed": true,
                    "internalType": "address"
                }
            ],
            "anonymous": false
        },
        {
            "type": "event",
            "name": "NFTListed",
            "inputs": [
                {
                    "name": "listingId",
                    "type": "uint256",
                    "indexed": true,
                    "internalType": "uint256"
                },
                {
                    "name": "seller",
                    "type": "address",
                    "indexed": true,
                    "internalType": "address"
                },
                {
                    "name": "nftContract",
                    "type": "address",
                    "indexed": true,
                    "internalType": "address"
                },
                {
                    "name": "tokenId",
                    "type": "uint256",
                    "indexed": false,
                    "internalType": "uint256"
                },
                {
                    "name": "paymentToken",
                    "type": "address",
                    "indexed": false,
                    "internalType": "address"
                },
                {
                    "name": "price",
                    "type": "uint256",
                    "indexed": false,
                    "internalType": "uint256"
                }
            ],
            "anonymous": false
        },
        {
            "type": "event",
            "name": "NFTPurchased",
            "inputs": [
                {
                    "name": "listingId",
                    "type": "uint256",
                    "indexed": true,
                    "internalType": "uint256"
                },
                {
                    "name": "buyer",
                    "type": "address",
                    "indexed": true,
                    "internalType": "address"
                },
                {
                    "name": "seller",
                    "type": "address",
                    "indexed": true,
                    "internalType": "address"
                },
                {
                    "name": "price",
                    "type": "uint256",
                    "indexed": false,
                    "internalType": "uint256"
                },
                {
                    "name": "platformFeeAmount",
                    "type": "uint256",
                    "indexed": false,
                    "internalType": "uint256"
                }
            ],
            "anonymous": false
        },
        {
            "type": "event",
            "name": "OwnershipTransferred",
            "inputs": [
                {
                    "name": "previousOwner",
                    "type": "address",
                    "indexed": true,
                    "internalType": "address"
                },
                {
                    "name": "newOwner",
                    "type": "address",
                    "indexed": true,
                    "internalType": "address"
                }
            ],
            "anonymous": false
        },
        {
            "type": "event",
            "name": "Paused",
            "inputs": [
                {
                    "name": "account",
                    "type": "address",
                    "indexed": false,
                    "internalType": "address"
                }
            ],
            "anonymous": false
        },
        {
            "type": "event",
            "name": "PlatformFeeUpdated",
            "inputs": [
                {
                    "name": "oldFee",
                    "type": "uint256",
                    "indexed": false,
                    "internalType": "uint256"
                },
                {
                    "name": "newFee",
                    "type": "uint256",
                    "indexed": false,
                    "internalType": "uint256"
                }
            ],
            "anonymous": false
        },
        {
            "type": "event",
            "name": "Unpaused",
            "inputs": [
                {
                    "name": "account",
                    "type": "address",
                    "indexed": false,
                    "internalType": "address"
                }
            ],
            "anonymous": false
        },
        {
            "type": "error",
            "name": "EnforcedPause",
            "inputs": []
        },
        {
            "type": "error",
            "name": "ExpectedPause",
            "inputs": []
        },
        {
            "type": "error",
            "name": "OwnableInvalidOwner",
            "inputs": [
                {
                    "name": "owner",
                    "type": "address",
                    "internalType": "address"
                }
            ]
        },
        {
            "type": "error",
            "name": "OwnableUnauthorizedAccount",
            "inputs": [
                {
                    "name": "account",
                    "type": "address",
                    "internalType": "address"
                }
            ]
        },
        {
            "type": "error",
            "name": "ReentrancyGuardReentrantCall",
            "inputs": []
        }
    ],
    "bytecode": {
        "object": "0x608060405260fa600555348015610014575f5ffd5b5060405161192038038061192083398101604081905261003391610131565b338061005957604051631e4fbdf760e01b81525f60048201526024015b60405180910390fd5b610062816100e2565b50600180556001600160a01b0381166100bd5760405162461bcd60e51b815260206004820152601560248201527f496e76616c69642066656520726563697069656e7400000000000000000000006044820152606401610050565b600680546001600160a01b0319166001600160a01b039290921691909117905561015e565b5f80546001600160a01b038381166001600160a01b0319831681178455604051919092169283917f8be0079c531659141344cd1fd0a4f28419497f9722a3daafe3b4186f6b6457e09190a35050565b5f60208284031215610141575f5ffd5b81516001600160a01b0381168114610157575f5ffd5b9392505050565b6117b58061016b5f395ff3fe608060405234801561000f575f5ffd5b5060043610610132575f3560e01c80638456cb59116100b4578063d8cba25111610079578063d8cba251146102aa578063de74e57b146102bd578063e74b981b14610361578063f2fde38b14610374578063f7adbbc914610387578063fab25bb21461039a575f5ffd5b80638456cb591461026157806387c35bc0146102695780638da5cb5b1461027e578063bc063e1a1461028e578063c56370e914610297575f5ffd5b80633f4ba83a116100fa5780633f4ba83a14610207578063469048401461020f5780635c975abb1461023a5780636c2c9c7d14610250578063715018a614610259575f5ffd5b8063107a274a1461013657806312e8e2c3146101b5578063150bde03146101ca57806326232a2e146101dd578063305a67a8146101f4575b5f5ffd5b61014961014436600461154c565b6103c4565b6040516101ac919081516001600160a01b03908116825260208084015182169083015260408084015190830152606080840151909116908201526080808301519082015260a08281015115159082015260c0918201519181019190915260e00190565b60405180910390f35b6101c86101c336600461154c565b6104a4565b005b6101c86101d836600461154c565b610533565b6101e660055481565b6040519081526020016101ac565b6101c861020236600461154c565b61098b565b6101c8610a96565b600654610222906001600160a01b031681565b6040516001600160a01b0390911681526020016101ac565b60025460ff1660405190151581526020016101ac565b6101e660045481565b6101c8610aa8565b6101c8610ab9565b610271610ac9565b6040516101ac9190611563565b5f546001600160a01b0316610222565b6101e66103e881565b6101c86102a536600461154c565b610bc5565b6102716102b83660046115b9565b610c7c565b61031c6102cb36600461154c565b600360208190525f918252604090912080546001820154600283015493830154600484015460058501546006909501546001600160a01b039485169693851695939490921692909160ff9091169087565b604080516001600160a01b0398891681529688166020880152860194909452949091166060840152608083015291151560a082015260c081019190915260e0016101ac565b6101c861036f3660046115b9565b610dc1565b6101c86103823660046115b9565b610e71565b6101c86103953660046115db565b610eab565b6103ad6103a8366004611620565b6112ef565b6040805192151583526020830191909152016101ac565b6040805160e0810182525f80825260208201819052918101829052606081018290526080810182905260a0810182905260c08101919091525f8211801561040d57506004548211155b6104325760405162461bcd60e51b81526004016104299061164a565b60405180910390fd5b505f90815260036020818152604092839020835160e08101855281546001600160a01b03908116825260018301548116938201939093526002820154948101949094529182015416606083015260048101546080830152600581015460ff16151560a08301526006015460c082015290565b6104ac6113d1565b6103e88111156104ed5760405162461bcd60e51b815260206004820152600c60248201526b08ccaca40e8dede40d0d2ced60a31b6044820152606401610429565b600580549082905560408051828152602081018490527fd347e206f25a89b917fc9482f1a2d294d749baa4dc9bde7fb495ee11fe49164391015b60405180910390a15050565b61053b6113fd565b610543611427565b805f8111801561055557506004548111155b6105715760405162461bcd60e51b81526004016104299061164a565b5f8181526003602052604090206005015460ff166105a15760405162461bcd60e51b815260040161042990611676565b5f82815260036020526040902080546001600160a01b031633036106075760405162461bcd60e51b815260206004820152601760248201527f43616e6e6f742062757920796f7572206f776e204e46540000000000000000006044820152606401610429565b6001810154815460028301546040516331a9108f60e11b815260048101919091526001600160a01b0392831692909116908290636352211e90602401602060405180830381865afa15801561065e573d5f5f3e3d5ffd5b505050506040513d601f19601f8201168201806040525081019061068291906116a2565b6001600160a01b0316146106d85760405162461bcd60e51b815260206004820152601d60248201527f4e4654206e6f206c6f6e676572206f776e65642062792073656c6c65720000006044820152606401610429565b600382015460055460048401546001600160a01b03909216915f916127109161070191906116d1565b61070b91906116ee565b90505f81856004015461071e919061170d565b85546040516323b872dd60e01b81523360048201526001600160a01b039182166024820152604481018390529192508416906323b872dd906064016020604051808303815f875af1158015610775573d5f5f3e3d5ffd5b505050506040513d601f19601f820116820180604052508101906107999190611720565b6107e55760405162461bcd60e51b815260206004820152601860248201527f5061796d656e7420746f2073656c6c6572206661696c656400000000000000006044820152606401610429565b81156108b1576006546040516323b872dd60e01b81523360048201526001600160a01b03918216602482015260448101849052908416906323b872dd906064016020604051808303815f875af1158015610841573d5f5f3e3d5ffd5b505050506040513d601f19601f820116820180604052508101906108659190611720565b6108b15760405162461bcd60e51b815260206004820152601b60248201527f506c6174666f726d20666565207061796d656e74206661696c656400000000006044820152606401610429565b84546002860154604051632142170760e11b81526001600160a01b0392831660048201523360248201526044810191909152908516906342842e0e906064015f604051808303815f87803b158015610907575f5ffd5b505af1158015610919573d5f5f3e3d5ffd5b5050505060058501805460ff191690558454600486015460408051918252602082018590526001600160a01b039092169133918a917fd69d4640acbdbbf9091244cb56da6273ff61cd59f33bd19f7fbbcbfc6255fe34910160405180910390a450505050505061098860018055565b50565b6109936113fd565b805f811180156109a557506004548111155b6109c15760405162461bcd60e51b81526004016104299061164a565b5f8181526003602052604090206005015460ff166109f15760405162461bcd60e51b815260040161042990611676565b5f8281526003602052604090205482906001600160a01b03163314610a495760405162461bcd60e51b815260206004820152600e60248201526d2737ba103a34329039b2b63632b960911b6044820152606401610429565b5f83815260036020526040808220600501805460ff1916905551339185917f8e25282255ab31897df2b0456bb993ac7f84d376861aefd84901d2d63a7428a29190a3505061098860018055565b610a9e6113d1565b610aa661144b565b565b610ab06113d1565b610aa65f61149d565b610ac16113d1565b610aa66114ec565b60605f60015b6004548111610b11575f8181526003602052604090206005015460ff1615610aff5781610afb8161173f565b9250505b80610b098161173f565b915050610acf565b505f8167ffffffffffffffff811115610b2c57610b2c611757565b604051908082528060200260200182016040528015610b55578160200160208202803683370190505b5090505f60015b6004548111610bbc575f8181526003602052604090206005015460ff1615610baa5780838381518110610b9157610b9161176b565b602090810291909101015281610ba68161173f565b9250505b80610bb48161173f565b915050610b5c565b50909392505050565b610bcd6113d1565b5f81118015610bde57506004548111155b610bfa5760405162461bcd60e51b81526004016104299061164a565b5f8181526003602052604090206005015460ff16610c2a5760405162461bcd60e51b815260040161042990611676565b5f8181526003602052604080822060058101805460ff191690555490516001600160a01b039091169183917f8e25282255ab31897df2b0456bb993ac7f84d376861aefd84901d2d63a7428a29190a350565b60605f60015b6004548111610ce8575f818152600360205260409020546001600160a01b038581169116148015610cc357505f8181526003602052604090206005015460ff165b15610cd65781610cd28161173f565b9250505b80610ce08161173f565b915050610c82565b505f8167ffffffffffffffff811115610d0357610d03611757565b604051908082528060200260200182016040528015610d2c578160200160208202803683370190505b5090505f60015b6004548111610db7575f818152600360205260409020546001600160a01b038781169116148015610d7457505f8181526003602052604090206005015460ff165b15610da55780838381518110610d8c57610d8c61176b565b602090810291909101015281610da18161173f565b9250505b80610daf8161173f565b915050610d33565b5090949350505050565b610dc96113d1565b6001600160a01b038116610e175760405162461bcd60e51b8152602060048201526015602482015274125b9d985b1a5908199959481c9958da5c1a595b9d605a1b6044820152606401610429565b600680546001600160a01b038381166001600160a01b031983168117909355604080519190921680825260208201939093527faaebcf1bfa00580e41d966056b48521fa9f202645c86d4ddf28113e617c1b1d39101610527565b610e796113d1565b6001600160a01b038116610ea257604051631e4fbdf760e01b81525f6004820152602401610429565b6109888161149d565b610eb36113fd565b610ebb611427565b6001600160a01b038416610f085760405162461bcd60e51b8152602060048201526014602482015273125b9d985b1a59081391950818dbdb9d1c9858dd60621b6044820152606401610429565b6001600160a01b038216610f565760405162461bcd60e51b815260206004820152601560248201527424b73b30b634b2103830bcb6b2b73a103a37b5b2b760591b6044820152606401610429565b5f8111610fa55760405162461bcd60e51b815260206004820152601c60248201527f5072696365206d7573742062652067726561746572207468616e2030000000006044820152606401610429565b6040516331a9108f60e11b815260048101849052849033906001600160a01b03831690636352211e90602401602060405180830381865afa158015610fec573d5f5f3e3d5ffd5b505050506040513d601f19601f8201168201806040525081019061101091906116a2565b6001600160a01b0316146110665760405162461bcd60e51b815260206004820152601960248201527f4e6f7420746865206f776e6572206f662074686973204e4654000000000000006044820152606401610429565b60405163e985e9c560e01b81523360048201523060248201526001600160a01b0382169063e985e9c590604401602060405180830381865afa1580156110ae573d5f5f3e3d5ffd5b505050506040513d601f19601f820116820180604052508101906110d29190611720565b8061114c575060405163020604bf60e21b81526004810185905230906001600160a01b0383169063081812fc90602401602060405180830381865afa15801561111d573d5f5f3e3d5ffd5b505050506040513d601f19601f8201168201806040525081019061114191906116a2565b6001600160a01b0316145b6111a95760405162461bcd60e51b815260206004820152602860248201527f4d61726b6574706c616365206e6f7420617070726f76656420746f207472616e6044820152671cd9995c8813919560c21b6064820152608401610429565b60048054905f6111b88361173f565b90915550506040805160e081018252338082526001600160a01b0388811660208085018281528587018b81528a851660608801908152608088018b8152600160a08a018181524260c08c01908152600480545f9081526003998a90528e90209c518d54908c166001600160a01b0319918216178e559751938d018054948c1694891694909417909355945160028c01559251958a018054969098169590941694909417909555915186820155925160058601805491151560ff1990921691909117905551600690940193909355549251919290917f1e25fc8c928dd31a9c3eaae05546a0ccbbd49ce772d96d508940bd80708ade0c906112d7908990899089909283526001600160a01b03919091166020830152604082015260600190565b60405180910390a4506112e960018055565b50505050565b5f8060015b60045481116113c2575f81815260036020818152604092839020835160e08101855281546001600160a01b03908116825260018301548116938201939093526002820154948101949094529182015416606083015260048101546080830152600581015460ff1615801560a0840181905260069092015460c084015261138f5750856001600160a01b031681602001516001600160a01b0316145b801561139e5750848160400151145b156113af57506001925090506113ca565b50806113ba8161173f565b9150506112f4565b505f5f915091505b9250929050565b5f546001600160a01b03163314610aa65760405163118cdaa760e01b8152336004820152602401610429565b60026001540361142057604051633ee5aeb560e01b815260040160405180910390fd5b6002600155565b60025460ff1615610aa65760405163d93c066560e01b815260040160405180910390fd5b611453611529565b6002805460ff191690557f5db9ee0a495bf2e6ff9c91a7834c1ba4fdd244a5e8aa4e537bd38aeae4b073aa335b6040516001600160a01b03909116815260200160405180910390a1565b5f80546001600160a01b038381166001600160a01b0319831681178455604051919092169283917f8be0079c531659141344cd1fd0a4f28419497f9722a3daafe3b4186f6b6457e09190a35050565b6114f4611427565b6002805460ff191660011790557f62e78cea01bee320cd4e420270b5ea74000d11b0c9f74754ebdbfc544b05a2586114803390565b60025460ff16610aa657604051638dfc202b60e01b815260040160405180910390fd5b5f6020828403121561155c575f5ffd5b5035919050565b602080825282518282018190525f918401906040840190835b8181101561159a57835183526020938401939092019160010161157c565b509095945050505050565b6001600160a01b0381168114610988575f5ffd5b5f602082840312156115c9575f5ffd5b81356115d4816115a5565b9392505050565b5f5f5f5f608085870312156115ee575f5ffd5b84356115f9816115a5565b9350602085013592506040850135611610816115a5565b9396929550929360600135925050565b5f5f60408385031215611631575f5ffd5b823561163c816115a5565b946020939093013593505050565b602080825260129082015271125b9d985b1a59081b1a5cdd1a5b99c8125160721b604082015260600190565b6020808252601290820152714c697374696e67206e6f742061637469766560701b604082015260600190565b5f602082840312156116b2575f5ffd5b81516115d4816115a5565b634e487b7160e01b5f52601160045260245ffd5b80820281158282048414176116e8576116e86116bd565b92915050565b5f8261170857634e487b7160e01b5f52601260045260245ffd5b500490565b818103818111156116e8576116e86116bd565b5f60208284031215611730575f5ffd5b815180151581146115d4575f5ffd5b5f60018201611750576117506116bd565b5060010190565b634e487b7160e01b5f52604160045260245ffd5b634e487b7160e01b5f52603260045260245ffdfea26469706673582212201e348a5fa24b7f07d5848c220e868d2e06a3a37721bba877e987783c4b98d9be64736f6c634300081c0033",
        "linkReferences": {}
    },
    "methodIdentifiers": {
        "MAX_FEE()": "bc063e1a",
        "cancelListing(uint256)": "305a67a8",
        "emergencyCancelListing(uint256)": "c56370e9",
        "feeRecipient()": "46904840",
        "getActiveListings()": "87c35bc0",
        "getListing(uint256)": "107a274a",
        "getListingsBySeller(address)": "d8cba251",
        "isNFTListed(address,uint256)": "fab25bb2",
        "listNFT(address,uint256,address,uint256)": "f7adbbc9",
        "listingCounter()": "6c2c9c7d",
        "listings(uint256)": "de74e57b",
        "owner()": "8da5cb5b",
        "pause()": "8456cb59",
        "paused()": "5c975abb",
        "platformFee()": "26232a2e",
        "purchaseNFT(uint256)": "150bde03",
        "renounceOwnership()": "715018a6",
        "setFeeRecipient(address)": "e74b981b",
        "setPlatformFee(uint256)": "12e8e2c3",
        "transferOwnership(address)": "f2fde38b",
        "unpause()": "3f4ba83a"
    },
    "id": 43
}